{
	"ERC-20/MyToken.sol": {
		"MyToken": {
			"abi": [
				{
					"inputs": [
						{
							"internalType": "string",
							"name": "_name",
							"type": "string"
						},
						{
							"internalType": "string",
							"name": "_symbol",
							"type": "string"
						},
						{
							"internalType": "uint8",
							"name": "_decimals",
							"type": "uint8"
						},
						{
							"internalType": "uint256",
							"name": "_initialSupply",
							"type": "uint256"
						}
					],
					"stateMutability": "nonpayable",
					"type": "constructor"
				},
				{
					"anonymous": false,
					"inputs": [
						{
							"indexed": true,
							"internalType": "address",
							"name": "owner",
							"type": "address"
						},
						{
							"indexed": true,
							"internalType": "address",
							"name": "spender",
							"type": "address"
						},
						{
							"indexed": false,
							"internalType": "uint256",
							"name": "value",
							"type": "uint256"
						}
					],
					"name": "Approval",
					"type": "event"
				},
				{
					"anonymous": false,
					"inputs": [
						{
							"indexed": true,
							"internalType": "address",
							"name": "from",
							"type": "address"
						},
						{
							"indexed": true,
							"internalType": "address",
							"name": "to",
							"type": "address"
						},
						{
							"indexed": false,
							"internalType": "uint256",
							"name": "value",
							"type": "uint256"
						}
					],
					"name": "Transfer",
					"type": "event"
				},
				{
					"inputs": [
						{
							"internalType": "address",
							"name": "",
							"type": "address"
						},
						{
							"internalType": "address",
							"name": "",
							"type": "address"
						}
					],
					"name": "allowance",
					"outputs": [
						{
							"internalType": "uint256",
							"name": "",
							"type": "uint256"
						}
					],
					"stateMutability": "view",
					"type": "function"
				},
				{
					"inputs": [
						{
							"internalType": "address",
							"name": "_spender",
							"type": "address"
						},
						{
							"internalType": "uint256",
							"name": "_value",
							"type": "uint256"
						}
					],
					"name": "approve",
					"outputs": [
						{
							"internalType": "bool",
							"name": "success",
							"type": "bool"
						}
					],
					"stateMutability": "nonpayable",
					"type": "function"
				},
				{
					"inputs": [
						{
							"internalType": "address",
							"name": "",
							"type": "address"
						}
					],
					"name": "balanceOf",
					"outputs": [
						{
							"internalType": "uint256",
							"name": "",
							"type": "uint256"
						}
					],
					"stateMutability": "view",
					"type": "function"
				},
				{
					"inputs": [],
					"name": "decimals",
					"outputs": [
						{
							"internalType": "uint8",
							"name": "",
							"type": "uint8"
						}
					],
					"stateMutability": "view",
					"type": "function"
				},
				{
					"inputs": [],
					"name": "name",
					"outputs": [
						{
							"internalType": "string",
							"name": "",
							"type": "string"
						}
					],
					"stateMutability": "view",
					"type": "function"
				},
				{
					"inputs": [],
					"name": "symbol",
					"outputs": [
						{
							"internalType": "string",
							"name": "",
							"type": "string"
						}
					],
					"stateMutability": "view",
					"type": "function"
				},
				{
					"inputs": [],
					"name": "totalSupply",
					"outputs": [
						{
							"internalType": "uint256",
							"name": "",
							"type": "uint256"
						}
					],
					"stateMutability": "view",
					"type": "function"
				},
				{
					"inputs": [
						{
							"internalType": "address",
							"name": "_to",
							"type": "address"
						},
						{
							"internalType": "uint256",
							"name": "_value",
							"type": "uint256"
						}
					],
					"name": "transfer",
					"outputs": [
						{
							"internalType": "bool",
							"name": "success",
							"type": "bool"
						}
					],
					"stateMutability": "nonpayable",
					"type": "function"
				}
			],
			"devdoc": {
				"kind": "dev",
				"methods": {},
				"version": 1
			},
			"evm": {
				"assembly": "    /* \"ERC-20/MyToken.sol\":63:1895  contract MyToken {\r... */\n  mstore(0x40, 0x80)\n    /* \"ERC-20/MyToken.sol\":815:1198  constructor(string memory _name, string memory _symbol,uint8 _decimals, uint256 _initialSupply){\r... */\n  callvalue\n  dup1\n  iszero\n  tag_1\n  jumpi\n  0x00\n  dup1\n  revert\ntag_1:\n  pop\n  mload(0x40)\n  sub(codesize, bytecodeSize)\n  dup1\n  bytecodeSize\n  dup4\n  codecopy\n  dup2\n  dup2\n  add\n  0x40\n  mstore\n  dup2\n  add\n  swap1\n  tag_2\n  swap2\n  swap1\n  tag_3\n  jump\t// in\ntag_2:\n    /* \"ERC-20/MyToken.sol\":928:933  _name */\n  dup4\n    /* \"ERC-20/MyToken.sol\":921:925  name */\n  0x00\n    /* \"ERC-20/MyToken.sol\":921:933  name = _name */\n  swap1\n  dup1\n  mload\n  swap1\n  0x20\n  add\n  swap1\n  tag_6\n  swap3\n  swap2\n  swap1\n  tag_7\n  jump\t// in\ntag_6:\n  pop\n    /* \"ERC-20/MyToken.sol\":953:960  _symbol */\n  dup3\n    /* \"ERC-20/MyToken.sol\":944:950  symbol */\n  0x01\n    /* \"ERC-20/MyToken.sol\":944:960  symbol = _symbol */\n  swap1\n  dup1\n  mload\n  swap1\n  0x20\n  add\n  swap1\n  tag_8\n  swap3\n  swap2\n  swap1\n  tag_7\n  jump\t// in\ntag_8:\n  pop\n    /* \"ERC-20/MyToken.sol\":982:991  _decimals */\n  dup2\n    /* \"ERC-20/MyToken.sol\":971:979  decimals */\n  0x02\n  0x00\n    /* \"ERC-20/MyToken.sol\":971:991  decimals = _decimals */\n  0x0100\n  exp\n  dup2\n  sload\n  dup2\n  0xff\n  mul\n  not\n  and\n  swap1\n  dup4\n  0xff\n  and\n  mul\n  or\n  swap1\n  sstore\n  pop\n    /* \"ERC-20/MyToken.sol\":1048:1056  decimals */\n  0x02\n  0x00\n  swap1\n  sload\n  swap1\n  0x0100\n  exp\n  swap1\n  div\n  0xff\n  and\n    /* \"ERC-20/MyToken.sol\":1040:1057  uint256(decimals) */\n  0xff\n  and\n    /* \"ERC-20/MyToken.sol\":1034:1036  10 */\n  0x0a\n    /* \"ERC-20/MyToken.sol\":1034:1057  10 ** uint256(decimals) */\n  tag_9\n  swap2\n  swap1\n  tag_10\n  jump\t// in\ntag_9:\n    /* \"ERC-20/MyToken.sol\":1016:1030  _initialSupply */\n  dup2\n    /* \"ERC-20/MyToken.sol\":1016:1058  _initialSupply * (10 ** uint256(decimals)) */\n  tag_11\n  swap2\n  swap1\n  tag_12\n  jump\t// in\ntag_11:\n    /* \"ERC-20/MyToken.sol\":1002:1013  totalSupply */\n  0x03\n    /* \"ERC-20/MyToken.sol\":1002:1058  totalSupply = _initialSupply * (10 ** uint256(decimals)) */\n  dup2\n  swap1\n  sstore\n  pop\n    /* \"ERC-20/MyToken.sol\":1127:1138  totalSupply */\n  sload(0x03)\n    /* \"ERC-20/MyToken.sol\":1103:1112  balanceOf */\n  0x04\n    /* \"ERC-20/MyToken.sol\":1103:1124  balanceOf[msg.sender] */\n  0x00\n    /* \"ERC-20/MyToken.sol\":1113:1123  msg.sender */\n  caller\n    /* \"ERC-20/MyToken.sol\":1103:1124  balanceOf[msg.sender] */\n  0xffffffffffffffffffffffffffffffffffffffff\n  and\n  0xffffffffffffffffffffffffffffffffffffffff\n  and\n  dup2\n  mstore\n  0x20\n  add\n  swap1\n  dup2\n  mstore\n  0x20\n  add\n  0x00\n  keccak256\n    /* \"ERC-20/MyToken.sol\":1103:1138  balanceOf[msg.sender] = totalSupply */\n  dup2\n  swap1\n  sstore\n  pop\n    /* \"ERC-20/MyToken.sol\":815:1198  constructor(string memory _name, string memory _symbol,uint8 _decimals, uint256 _initialSupply){\r... */\n  pop\n  pop\n  pop\n  pop\n    /* \"ERC-20/MyToken.sol\":63:1895  contract MyToken {\r... */\n  jump(tag_13)\ntag_7:\n  dup3\n  dup1\n  sload\n  tag_14\n  swap1\n  tag_15\n  jump\t// in\ntag_14:\n  swap1\n  0x00\n  mstore\n  keccak256(0x00, 0x20)\n  swap1\n  0x1f\n  add\n  0x20\n  swap1\n  div\n  dup2\n  add\n  swap3\n  dup3\n  tag_17\n  jumpi\n  0x00\n  dup6\n  sstore\n  jump(tag_16)\ntag_17:\n  dup3\n  0x1f\n  lt\n  tag_18\n  jumpi\n  dup1\n  mload\n  not(0xff)\n  and\n  dup4\n  dup1\n  add\n  or\n  dup6\n  sstore\n  jump(tag_16)\ntag_18:\n  dup3\n  dup1\n  add\n  0x01\n  add\n  dup6\n  sstore\n  dup3\n  iszero\n  tag_16\n  jumpi\n  swap2\n  dup3\n  add\ntag_19:\n  dup3\n  dup2\n  gt\n  iszero\n  tag_20\n  jumpi\n  dup3\n  mload\n  dup3\n  sstore\n  swap2\n  0x20\n  add\n  swap2\n  swap1\n  0x01\n  add\n  swap1\n  jump(tag_19)\ntag_20:\ntag_16:\n  pop\n  swap1\n  pop\n  tag_21\n  swap2\n  swap1\n  tag_22\n  jump\t// in\ntag_21:\n  pop\n  swap1\n  jump\t// out\ntag_22:\ntag_23:\n  dup1\n  dup3\n  gt\n  iszero\n  tag_24\n  jumpi\n  0x00\n  dup2\n  0x00\n  swap1\n  sstore\n  pop\n  0x01\n  add\n  jump(tag_23)\ntag_24:\n  pop\n  swap1\n  jump\t// out\n    /* \"#utility.yul\":7:360   */\ntag_26:\n  0x00\n    /* \"#utility.yul\":121:186   */\n  tag_28\n    /* \"#utility.yul\":136:185   */\n  tag_29\n    /* \"#utility.yul\":178:184   */\n  dup5\n    /* \"#utility.yul\":136:185   */\n  tag_30\n  jump\t// in\ntag_29:\n    /* \"#utility.yul\":121:186   */\n  tag_31\n  jump\t// in\ntag_28:\n    /* \"#utility.yul\":112:186   */\n  swap1\n  pop\n    /* \"#utility.yul\":209:215   */\n  dup3\n    /* \"#utility.yul\":202:207   */\n  dup2\n    /* \"#utility.yul\":195:216   */\n  mstore\n    /* \"#utility.yul\":247:251   */\n  0x20\n    /* \"#utility.yul\":240:245   */\n  dup2\n    /* \"#utility.yul\":236:252   */\n  add\n    /* \"#utility.yul\":285:288   */\n  dup5\n    /* \"#utility.yul\":276:282   */\n  dup5\n    /* \"#utility.yul\":271:274   */\n  dup5\n    /* \"#utility.yul\":267:283   */\n  add\n    /* \"#utility.yul\":264:289   */\n  gt\n    /* \"#utility.yul\":261:263   */\n  iszero\n  tag_32\n  jumpi\n    /* \"#utility.yul\":302:303   */\n  0x00\n    /* \"#utility.yul\":299:300   */\n  dup1\n    /* \"#utility.yul\":292:304   */\n  revert\n    /* \"#utility.yul\":261:263   */\ntag_32:\n    /* \"#utility.yul\":315:354   */\n  tag_33\n    /* \"#utility.yul\":347:353   */\n  dup5\n    /* \"#utility.yul\":342:345   */\n  dup3\n    /* \"#utility.yul\":337:340   */\n  dup6\n    /* \"#utility.yul\":315:354   */\n  tag_34\n  jump\t// in\ntag_33:\n    /* \"#utility.yul\":102:360   */\n  pop\n  swap4\n  swap3\n  pop\n  pop\n  pop\n  jump\t// out\n    /* \"#utility.yul\":380:668   */\ntag_35:\n  0x00\n    /* \"#utility.yul\":496:499   */\n  dup3\n    /* \"#utility.yul\":489:493   */\n  0x1f\n    /* \"#utility.yul\":481:487   */\n  dup4\n    /* \"#utility.yul\":477:494   */\n  add\n    /* \"#utility.yul\":473:500   */\n  slt\n    /* \"#utility.yul\":463:465   */\n  tag_37\n  jumpi\n    /* \"#utility.yul\":514:515   */\n  0x00\n    /* \"#utility.yul\":511:512   */\n  dup1\n    /* \"#utility.yul\":504:516   */\n  revert\n    /* \"#utility.yul\":463:465   */\ntag_37:\n    /* \"#utility.yul\":547:553   */\n  dup2\n    /* \"#utility.yul\":541:554   */\n  mload\n    /* \"#utility.yul\":572:662   */\n  tag_38\n    /* \"#utility.yul\":658:661   */\n  dup5\n    /* \"#utility.yul\":650:656   */\n  dup3\n    /* \"#utility.yul\":643:647   */\n  0x20\n    /* \"#utility.yul\":635:641   */\n  dup7\n    /* \"#utility.yul\":631:648   */\n  add\n    /* \"#utility.yul\":572:662   */\n  tag_26\n  jump\t// in\ntag_38:\n    /* \"#utility.yul\":563:662   */\n  swap2\n  pop\n    /* \"#utility.yul\":453:668   */\n  pop\n  swap3\n  swap2\n  pop\n  pop\n  jump\t// out\n    /* \"#utility.yul\":674:817   */\ntag_39:\n  0x00\n    /* \"#utility.yul\":762:768   */\n  dup2\n    /* \"#utility.yul\":756:769   */\n  mload\n    /* \"#utility.yul\":747:769   */\n  swap1\n  pop\n    /* \"#utility.yul\":778:811   */\n  tag_41\n    /* \"#utility.yul\":805:810   */\n  dup2\n    /* \"#utility.yul\":778:811   */\n  tag_42\n  jump\t// in\ntag_41:\n    /* \"#utility.yul\":737:817   */\n  swap3\n  swap2\n  pop\n  pop\n  jump\t// out\n    /* \"#utility.yul\":823:962   */\ntag_43:\n  0x00\n    /* \"#utility.yul\":909:915   */\n  dup2\n    /* \"#utility.yul\":903:916   */\n  mload\n    /* \"#utility.yul\":894:916   */\n  swap1\n  pop\n    /* \"#utility.yul\":925:956   */\n  tag_45\n    /* \"#utility.yul\":950:955   */\n  dup2\n    /* \"#utility.yul\":925:956   */\n  tag_46\n  jump\t// in\ntag_45:\n    /* \"#utility.yul\":884:962   */\n  swap3\n  swap2\n  pop\n  pop\n  jump\t// out\n    /* \"#utility.yul\":968:1929   */\ntag_3:\n  0x00\n  dup1\n  0x00\n  dup1\n    /* \"#utility.yul\":1156:1159   */\n  0x80\n    /* \"#utility.yul\":1144:1153   */\n  dup6\n    /* \"#utility.yul\":1135:1142   */\n  dup8\n    /* \"#utility.yul\":1131:1154   */\n  sub\n    /* \"#utility.yul\":1127:1160   */\n  slt\n    /* \"#utility.yul\":1124:1126   */\n  iszero\n  tag_48\n  jumpi\n    /* \"#utility.yul\":1173:1174   */\n  0x00\n    /* \"#utility.yul\":1170:1171   */\n  dup1\n    /* \"#utility.yul\":1163:1175   */\n  revert\n    /* \"#utility.yul\":1124:1126   */\ntag_48:\n    /* \"#utility.yul\":1237:1238   */\n  0x00\n    /* \"#utility.yul\":1226:1235   */\n  dup6\n    /* \"#utility.yul\":1222:1239   */\n  add\n    /* \"#utility.yul\":1216:1240   */\n  mload\n    /* \"#utility.yul\":1267:1285   */\n  0xffffffffffffffff\n    /* \"#utility.yul\":1259:1265   */\n  dup2\n    /* \"#utility.yul\":1256:1286   */\n  gt\n    /* \"#utility.yul\":1253:1255   */\n  iszero\n  tag_49\n  jumpi\n    /* \"#utility.yul\":1299:1300   */\n  0x00\n    /* \"#utility.yul\":1296:1297   */\n  dup1\n    /* \"#utility.yul\":1289:1301   */\n  revert\n    /* \"#utility.yul\":1253:1255   */\ntag_49:\n    /* \"#utility.yul\":1327:1401   */\n  tag_50\n    /* \"#utility.yul\":1393:1400   */\n  dup8\n    /* \"#utility.yul\":1384:1390   */\n  dup3\n    /* \"#utility.yul\":1373:1382   */\n  dup9\n    /* \"#utility.yul\":1369:1391   */\n  add\n    /* \"#utility.yul\":1327:1401   */\n  tag_35\n  jump\t// in\ntag_50:\n    /* \"#utility.yul\":1317:1401   */\n  swap5\n  pop\n    /* \"#utility.yul\":1187:1411   */\n  pop\n    /* \"#utility.yul\":1471:1473   */\n  0x20\n    /* \"#utility.yul\":1460:1469   */\n  dup6\n    /* \"#utility.yul\":1456:1474   */\n  add\n    /* \"#utility.yul\":1450:1475   */\n  mload\n    /* \"#utility.yul\":1502:1520   */\n  0xffffffffffffffff\n    /* \"#utility.yul\":1494:1500   */\n  dup2\n    /* \"#utility.yul\":1491:1521   */\n  gt\n    /* \"#utility.yul\":1488:1490   */\n  iszero\n  tag_51\n  jumpi\n    /* \"#utility.yul\":1534:1535   */\n  0x00\n    /* \"#utility.yul\":1531:1532   */\n  dup1\n    /* \"#utility.yul\":1524:1536   */\n  revert\n    /* \"#utility.yul\":1488:1490   */\ntag_51:\n    /* \"#utility.yul\":1562:1636   */\n  tag_52\n    /* \"#utility.yul\":1628:1635   */\n  dup8\n    /* \"#utility.yul\":1619:1625   */\n  dup3\n    /* \"#utility.yul\":1608:1617   */\n  dup9\n    /* \"#utility.yul\":1604:1626   */\n  add\n    /* \"#utility.yul\":1562:1636   */\n  tag_35\n  jump\t// in\ntag_52:\n    /* \"#utility.yul\":1552:1636   */\n  swap4\n  pop\n    /* \"#utility.yul\":1421:1646   */\n  pop\n    /* \"#utility.yul\":1685:1687   */\n  0x40\n    /* \"#utility.yul\":1711:1773   */\n  tag_53\n    /* \"#utility.yul\":1765:1772   */\n  dup8\n    /* \"#utility.yul\":1756:1762   */\n  dup3\n    /* \"#utility.yul\":1745:1754   */\n  dup9\n    /* \"#utility.yul\":1741:1763   */\n  add\n    /* \"#utility.yul\":1711:1773   */\n  tag_43\n  jump\t// in\ntag_53:\n    /* \"#utility.yul\":1701:1773   */\n  swap3\n  pop\n    /* \"#utility.yul\":1656:1783   */\n  pop\n    /* \"#utility.yul\":1822:1824   */\n  0x60\n    /* \"#utility.yul\":1848:1912   */\n  tag_54\n    /* \"#utility.yul\":1904:1911   */\n  dup8\n    /* \"#utility.yul\":1895:1901   */\n  dup3\n    /* \"#utility.yul\":1884:1893   */\n  dup9\n    /* \"#utility.yul\":1880:1902   */\n  add\n    /* \"#utility.yul\":1848:1912   */\n  tag_39\n  jump\t// in\ntag_54:\n    /* \"#utility.yul\":1838:1912   */\n  swap2\n  pop\n    /* \"#utility.yul\":1793:1922   */\n  pop\n    /* \"#utility.yul\":1114:1929   */\n  swap3\n  swap6\n  swap2\n  swap5\n  pop\n  swap3\n  pop\n  jump\t// out\n    /* \"#utility.yul\":1935:2218   */\ntag_31:\n  0x00\n    /* \"#utility.yul\":2001:2003   */\n  0x40\n    /* \"#utility.yul\":1995:2004   */\n  mload\n    /* \"#utility.yul\":1985:2004   */\n  swap1\n  pop\n    /* \"#utility.yul\":2043:2047   */\n  dup2\n    /* \"#utility.yul\":2035:2041   */\n  dup2\n    /* \"#utility.yul\":2031:2048   */\n  add\n    /* \"#utility.yul\":2150:2156   */\n  dup2\n    /* \"#utility.yul\":2138:2148   */\n  dup2\n    /* \"#utility.yul\":2135:2157   */\n  lt\n    /* \"#utility.yul\":2114:2132   */\n  0xffffffffffffffff\n    /* \"#utility.yul\":2102:2112   */\n  dup3\n    /* \"#utility.yul\":2099:2133   */\n  gt\n    /* \"#utility.yul\":2096:2158   */\n  or\n    /* \"#utility.yul\":2093:2095   */\n  iszero\n  tag_56\n  jumpi\n    /* \"#utility.yul\":2161:2179   */\n  tag_57\n  tag_58\n  jump\t// in\ntag_57:\n    /* \"#utility.yul\":2093:2095   */\ntag_56:\n    /* \"#utility.yul\":2201:2211   */\n  dup1\n    /* \"#utility.yul\":2197:2199   */\n  0x40\n    /* \"#utility.yul\":2190:2212   */\n  mstore\n    /* \"#utility.yul\":1975:2218   */\n  pop\n  swap2\n  swap1\n  pop\n  jump\t// out\n    /* \"#utility.yul\":2224:2556   */\ntag_30:\n  0x00\n    /* \"#utility.yul\":2376:2394   */\n  0xffffffffffffffff\n    /* \"#utility.yul\":2368:2374   */\n  dup3\n    /* \"#utility.yul\":2365:2395   */\n  gt\n    /* \"#utility.yul\":2362:2364   */\n  iszero\n  tag_60\n  jumpi\n    /* \"#utility.yul\":2398:2416   */\n  tag_61\n  tag_58\n  jump\t// in\ntag_61:\n    /* \"#utility.yul\":2362:2364   */\ntag_60:\n    /* \"#utility.yul\":2483:2487   */\n  0x1f\n    /* \"#utility.yul\":2479:2488   */\n  not\n    /* \"#utility.yul\":2472:2476   */\n  0x1f\n    /* \"#utility.yul\":2464:2470   */\n  dup4\n    /* \"#utility.yul\":2460:2477   */\n  add\n    /* \"#utility.yul\":2456:2489   */\n  and\n    /* \"#utility.yul\":2448:2489   */\n  swap1\n  pop\n    /* \"#utility.yul\":2544:2548   */\n  0x20\n    /* \"#utility.yul\":2538:2542   */\n  dup2\n    /* \"#utility.yul\":2534:2549   */\n  add\n    /* \"#utility.yul\":2526:2549   */\n  swap1\n  pop\n    /* \"#utility.yul\":2291:2556   */\n  swap2\n  swap1\n  pop\n  jump\t// out\n    /* \"#utility.yul\":2562:3410   */\ntag_62:\n  0x00\n  dup1\n    /* \"#utility.yul\":2654:2660   */\n  dup3\n    /* \"#utility.yul\":2645:2660   */\n  swap2\n  pop\n    /* \"#utility.yul\":2678:2683   */\n  dup4\n    /* \"#utility.yul\":2669:2683   */\n  swap1\n  pop\n    /* \"#utility.yul\":2692:3404   */\ntag_64:\n    /* \"#utility.yul\":2713:2714   */\n  0x01\n    /* \"#utility.yul\":2703:2711   */\n  dup6\n    /* \"#utility.yul\":2700:2715   */\n  gt\n    /* \"#utility.yul\":2692:3404   */\n  iszero\n  tag_66\n  jumpi\n    /* \"#utility.yul\":2808:2812   */\n  dup1\n    /* \"#utility.yul\":2803:2806   */\n  dup7\n    /* \"#utility.yul\":2799:2813   */\n  div\n    /* \"#utility.yul\":2793:2797   */\n  dup2\n    /* \"#utility.yul\":2790:2814   */\n  gt\n    /* \"#utility.yul\":2787:2789   */\n  iszero\n  tag_67\n  jumpi\n    /* \"#utility.yul\":2817:2835   */\n  tag_68\n  tag_69\n  jump\t// in\ntag_68:\n    /* \"#utility.yul\":2787:2789   */\ntag_67:\n    /* \"#utility.yul\":2867:2868   */\n  0x01\n    /* \"#utility.yul\":2857:2865   */\n  dup6\n    /* \"#utility.yul\":2853:2869   */\n  and\n    /* \"#utility.yul\":2850:2852   */\n  iszero\n  tag_70\n  jumpi\n    /* \"#utility.yul\":3282:3286   */\n  dup1\n    /* \"#utility.yul\":3275:3280   */\n  dup3\n    /* \"#utility.yul\":3271:3287   */\n  mul\n    /* \"#utility.yul\":3262:3287   */\n  swap2\n  pop\n    /* \"#utility.yul\":2850:2852   */\ntag_70:\n    /* \"#utility.yul\":3332:3336   */\n  dup1\n    /* \"#utility.yul\":3326:3330   */\n  dup2\n    /* \"#utility.yul\":3322:3337   */\n  mul\n    /* \"#utility.yul\":3314:3337   */\n  swap1\n  pop\n    /* \"#utility.yul\":3362:3394   */\n  tag_71\n    /* \"#utility.yul\":3385:3393   */\n  dup6\n    /* \"#utility.yul\":3362:3394   */\n  tag_72\n  jump\t// in\ntag_71:\n    /* \"#utility.yul\":3350:3394   */\n  swap5\n  pop\n    /* \"#utility.yul\":2692:3404   */\n  jump(tag_64)\ntag_66:\n    /* \"#utility.yul\":2635:3410   */\n  swap5\n  pop\n  swap5\n  swap3\n  pop\n  pop\n  pop\n  jump\t// out\n    /* \"#utility.yul\":3416:3701   */\ntag_10:\n  0x00\n    /* \"#utility.yul\":3500:3523   */\n  tag_74\n    /* \"#utility.yul\":3518:3522   */\n  dup3\n    /* \"#utility.yul\":3500:3523   */\n  tag_75\n  jump\t// in\ntag_74:\n    /* \"#utility.yul\":3492:3523   */\n  swap2\n  pop\n    /* \"#utility.yul\":3544:3571   */\n  tag_76\n    /* \"#utility.yul\":3562:3570   */\n  dup4\n    /* \"#utility.yul\":3544:3571   */\n  tag_75\n  jump\t// in\ntag_76:\n    /* \"#utility.yul\":3532:3571   */\n  swap3\n  pop\n    /* \"#utility.yul\":3590:3694   */\n  tag_77\n    /* \"#utility.yul\":3627:3693   */\n  0xffffffffffffffffffffffffffffffffffffffffffffffffffffffffffffffff\n    /* \"#utility.yul\":3617:3625   */\n  dup5\n    /* \"#utility.yul\":3611:3615   */\n  dup5\n    /* \"#utility.yul\":3590:3694   */\n  tag_78\n  jump\t// in\ntag_77:\n    /* \"#utility.yul\":3581:3694   */\n  swap1\n  pop\n    /* \"#utility.yul\":3482:3701   */\n  swap3\n  swap2\n  pop\n  pop\n  jump\t// out\n    /* \"#utility.yul\":3707:4780   */\ntag_78:\n  0x00\n    /* \"#utility.yul\":3952:3960   */\n  dup3\n    /* \"#utility.yul\":3942:3944   */\n  tag_80\n  jumpi\n    /* \"#utility.yul\":3973:3974   */\n  0x01\n    /* \"#utility.yul\":3964:3974   */\n  swap1\n  pop\n    /* \"#utility.yul\":3975:3980   */\n  jump(tag_79)\n    /* \"#utility.yul\":3942:3944   */\ntag_80:\n    /* \"#utility.yul\":4001:4005   */\n  dup2\n    /* \"#utility.yul\":3991:3993   */\n  tag_81\n  jumpi\n    /* \"#utility.yul\":4018:4019   */\n  0x00\n    /* \"#utility.yul\":4009:4019   */\n  swap1\n  pop\n    /* \"#utility.yul\":4020:4025   */\n  jump(tag_79)\n    /* \"#utility.yul\":3991:3993   */\ntag_81:\n    /* \"#utility.yul\":4087:4091   */\n  dup2\n    /* \"#utility.yul\":4135:4136   */\n  0x01\n    /* \"#utility.yul\":4130:4157   */\n  dup2\n  eq\n  tag_83\n  jumpi\n    /* \"#utility.yul\":4171:4172   */\n  0x02\n    /* \"#utility.yul\":4166:4357   */\n  dup2\n  eq\n  tag_84\n  jumpi\n    /* \"#utility.yul\":4080:4357   */\n  jump(tag_82)\n    /* \"#utility.yul\":4130:4157   */\ntag_83:\n    /* \"#utility.yul\":4148:4149   */\n  0x01\n    /* \"#utility.yul\":4139:4149   */\n  swap2\n  pop\n    /* \"#utility.yul\":4150:4155   */\n  pop\n  jump(tag_79)\n    /* \"#utility.yul\":4166:4357   */\ntag_84:\n    /* \"#utility.yul\":4211:4214   */\n  0xff\n    /* \"#utility.yul\":4201:4209   */\n  dup5\n    /* \"#utility.yul\":4198:4215   */\n  gt\n    /* \"#utility.yul\":4195:4197   */\n  iszero\n  tag_85\n  jumpi\n    /* \"#utility.yul\":4218:4236   */\n  tag_86\n  tag_69\n  jump\t// in\ntag_86:\n    /* \"#utility.yul\":4195:4197   */\ntag_85:\n    /* \"#utility.yul\":4267:4275   */\n  dup4\n    /* \"#utility.yul\":4264:4265   */\n  0x02\n    /* \"#utility.yul\":4260:4276   */\n  exp\n    /* \"#utility.yul\":4251:4276   */\n  swap2\n  pop\n    /* \"#utility.yul\":4302:4305   */\n  dup5\n    /* \"#utility.yul\":4295:4300   */\n  dup3\n    /* \"#utility.yul\":4292:4306   */\n  gt\n    /* \"#utility.yul\":4289:4291   */\n  iszero\n  tag_87\n  jumpi\n    /* \"#utility.yul\":4309:4327   */\n  tag_88\n  tag_69\n  jump\t// in\ntag_88:\n    /* \"#utility.yul\":4289:4291   */\ntag_87:\n    /* \"#utility.yul\":4342:4347   */\n  pop\n  jump(tag_79)\n    /* \"#utility.yul\":4080:4357   */\ntag_82:\n  pop\n    /* \"#utility.yul\":4466:4468   */\n  0x20\n    /* \"#utility.yul\":4456:4464   */\n  dup4\n    /* \"#utility.yul\":4453:4469   */\n  lt\n    /* \"#utility.yul\":4447:4450   */\n  0x0133\n    /* \"#utility.yul\":4441:4445   */\n  dup4\n    /* \"#utility.yul\":4438:4451   */\n  lt\n    /* \"#utility.yul\":4434:4470   */\n  and\n    /* \"#utility.yul\":4416:4418   */\n  0x4e\n    /* \"#utility.yul\":4406:4414   */\n  dup5\n    /* \"#utility.yul\":4403:4419   */\n  lt\n    /* \"#utility.yul\":4398:4400   */\n  0x0b\n    /* \"#utility.yul\":4392:4396   */\n  dup5\n    /* \"#utility.yul\":4389:4401   */\n  lt\n    /* \"#utility.yul\":4385:4420   */\n  and\n    /* \"#utility.yul\":4369:4480   */\n  or\n    /* \"#utility.yul\":4366:4368   */\n  iszero\n  tag_89\n  jumpi\n    /* \"#utility.yul\":4522:4530   */\n  dup3\n    /* \"#utility.yul\":4516:4520   */\n  dup3\n    /* \"#utility.yul\":4512:4531   */\n  exp\n    /* \"#utility.yul\":4503:4531   */\n  swap1\n  pop\n    /* \"#utility.yul\":4557:4560   */\n  dup4\n    /* \"#utility.yul\":4550:4555   */\n  dup2\n    /* \"#utility.yul\":4547:4561   */\n  gt\n    /* \"#utility.yul\":4544:4546   */\n  iszero\n  tag_90\n  jumpi\n    /* \"#utility.yul\":4564:4582   */\n  tag_91\n  tag_69\n  jump\t// in\ntag_91:\n    /* \"#utility.yul\":4544:4546   */\ntag_90:\n    /* \"#utility.yul\":4597:4602   */\n  jump(tag_79)\n    /* \"#utility.yul\":4366:4368   */\ntag_89:\n    /* \"#utility.yul\":4637:4679   */\n  tag_92\n    /* \"#utility.yul\":4675:4678   */\n  dup5\n    /* \"#utility.yul\":4665:4673   */\n  dup5\n    /* \"#utility.yul\":4659:4663   */\n  dup5\n    /* \"#utility.yul\":4656:4657   */\n  0x01\n    /* \"#utility.yul\":4637:4679   */\n  tag_62\n  jump\t// in\ntag_92:\n    /* \"#utility.yul\":4622:4679   */\n  swap3\n  pop\n  swap1\n  pop\n    /* \"#utility.yul\":4711:4715   */\n  dup2\n    /* \"#utility.yul\":4706:4709   */\n  dup5\n    /* \"#utility.yul\":4702:4716   */\n  div\n    /* \"#utility.yul\":4695:4700   */\n  dup2\n    /* \"#utility.yul\":4692:4717   */\n  gt\n    /* \"#utility.yul\":4689:4691   */\n  iszero\n  tag_93\n  jumpi\n    /* \"#utility.yul\":4720:4738   */\n  tag_94\n  tag_69\n  jump\t// in\ntag_94:\n    /* \"#utility.yul\":4689:4691   */\ntag_93:\n    /* \"#utility.yul\":4769:4773   */\n  dup2\n    /* \"#utility.yul\":4762:4767   */\n  dup2\n    /* \"#utility.yul\":4758:4774   */\n  mul\n    /* \"#utility.yul\":4749:4774   */\n  swap1\n  pop\n    /* \"#utility.yul\":3767:4780   */\ntag_79:\n  swap4\n  swap3\n  pop\n  pop\n  pop\n  jump\t// out\n    /* \"#utility.yul\":4786:5134   */\ntag_12:\n  0x00\n    /* \"#utility.yul\":4849:4869   */\n  tag_96\n    /* \"#utility.yul\":4867:4868   */\n  dup3\n    /* \"#utility.yul\":4849:4869   */\n  tag_75\n  jump\t// in\ntag_96:\n    /* \"#utility.yul\":4844:4869   */\n  swap2\n  pop\n    /* \"#utility.yul\":4883:4903   */\n  tag_97\n    /* \"#utility.yul\":4901:4902   */\n  dup4\n    /* \"#utility.yul\":4883:4903   */\n  tag_75\n  jump\t// in\ntag_97:\n    /* \"#utility.yul\":4878:4903   */\n  swap3\n  pop\n    /* \"#utility.yul\":5071:5072   */\n  dup2\n    /* \"#utility.yul\":5003:5069   */\n  0xffffffffffffffffffffffffffffffffffffffffffffffffffffffffffffffff\n    /* \"#utility.yul\":4999:5073   */\n  div\n    /* \"#utility.yul\":4996:4997   */\n  dup4\n    /* \"#utility.yul\":4993:5074   */\n  gt\n    /* \"#utility.yul\":4988:4989   */\n  dup3\n    /* \"#utility.yul\":4981:4990   */\n  iszero\n    /* \"#utility.yul\":4974:4991   */\n  iszero\n    /* \"#utility.yul\":4970:5075   */\n  and\n    /* \"#utility.yul\":4967:4969   */\n  iszero\n  tag_98\n  jumpi\n    /* \"#utility.yul\":5078:5096   */\n  tag_99\n  tag_69\n  jump\t// in\ntag_99:\n    /* \"#utility.yul\":4967:4969   */\ntag_98:\n    /* \"#utility.yul\":5126:5127   */\n  dup3\n    /* \"#utility.yul\":5123:5124   */\n  dup3\n    /* \"#utility.yul\":5119:5128   */\n  mul\n    /* \"#utility.yul\":5108:5128   */\n  swap1\n  pop\n    /* \"#utility.yul\":4834:5134   */\n  swap3\n  swap2\n  pop\n  pop\n  jump\t// out\n    /* \"#utility.yul\":5140:5217   */\ntag_75:\n  0x00\n    /* \"#utility.yul\":5206:5211   */\n  dup2\n    /* \"#utility.yul\":5195:5211   */\n  swap1\n  pop\n    /* \"#utility.yul\":5185:5217   */\n  swap2\n  swap1\n  pop\n  jump\t// out\n    /* \"#utility.yul\":5223:5309   */\ntag_101:\n  0x00\n    /* \"#utility.yul\":5298:5302   */\n  0xff\n    /* \"#utility.yul\":5291:5296   */\n  dup3\n    /* \"#utility.yul\":5287:5303   */\n  and\n    /* \"#utility.yul\":5276:5303   */\n  swap1\n  pop\n    /* \"#utility.yul\":5266:5309   */\n  swap2\n  swap1\n  pop\n  jump\t// out\n    /* \"#utility.yul\":5315:5622   */\ntag_34:\n    /* \"#utility.yul\":5383:5384   */\n  0x00\n    /* \"#utility.yul\":5393:5506   */\ntag_104:\n    /* \"#utility.yul\":5407:5413   */\n  dup4\n    /* \"#utility.yul\":5404:5405   */\n  dup2\n    /* \"#utility.yul\":5401:5414   */\n  lt\n    /* \"#utility.yul\":5393:5506   */\n  iszero\n  tag_106\n  jumpi\n    /* \"#utility.yul\":5492:5493   */\n  dup1\n    /* \"#utility.yul\":5487:5490   */\n  dup3\n    /* \"#utility.yul\":5483:5494   */\n  add\n    /* \"#utility.yul\":5477:5495   */\n  mload\n    /* \"#utility.yul\":5473:5474   */\n  dup2\n    /* \"#utility.yul\":5468:5471   */\n  dup5\n    /* \"#utility.yul\":5464:5475   */\n  add\n    /* \"#utility.yul\":5457:5496   */\n  mstore\n    /* \"#utility.yul\":5429:5431   */\n  0x20\n    /* \"#utility.yul\":5426:5427   */\n  dup2\n    /* \"#utility.yul\":5422:5432   */\n  add\n    /* \"#utility.yul\":5417:5432   */\n  swap1\n  pop\n    /* \"#utility.yul\":5393:5506   */\n  jump(tag_104)\ntag_106:\n    /* \"#utility.yul\":5524:5530   */\n  dup4\n    /* \"#utility.yul\":5521:5522   */\n  dup2\n    /* \"#utility.yul\":5518:5531   */\n  gt\n    /* \"#utility.yul\":5515:5517   */\n  iszero\n  tag_107\n  jumpi\n    /* \"#utility.yul\":5604:5605   */\n  0x00\n    /* \"#utility.yul\":5595:5601   */\n  dup5\n    /* \"#utility.yul\":5590:5593   */\n  dup5\n    /* \"#utility.yul\":5586:5602   */\n  add\n    /* \"#utility.yul\":5579:5606   */\n  mstore\n    /* \"#utility.yul\":5515:5517   */\ntag_107:\n    /* \"#utility.yul\":5364:5622   */\n  pop\n  pop\n  pop\n  pop\n  jump\t// out\n    /* \"#utility.yul\":5628:5948   */\ntag_15:\n  0x00\n    /* \"#utility.yul\":5709:5710   */\n  0x02\n    /* \"#utility.yul\":5703:5707   */\n  dup3\n    /* \"#utility.yul\":5699:5711   */\n  div\n    /* \"#utility.yul\":5689:5711   */\n  swap1\n  pop\n    /* \"#utility.yul\":5756:5757   */\n  0x01\n    /* \"#utility.yul\":5750:5754   */\n  dup3\n    /* \"#utility.yul\":5746:5758   */\n  and\n    /* \"#utility.yul\":5777:5795   */\n  dup1\n    /* \"#utility.yul\":5767:5769   */\n  tag_109\n  jumpi\n    /* \"#utility.yul\":5833:5837   */\n  0x7f\n    /* \"#utility.yul\":5825:5831   */\n  dup3\n    /* \"#utility.yul\":5821:5838   */\n  and\n    /* \"#utility.yul\":5811:5838   */\n  swap2\n  pop\n    /* \"#utility.yul\":5767:5769   */\ntag_109:\n    /* \"#utility.yul\":5895:5897   */\n  0x20\n    /* \"#utility.yul\":5887:5893   */\n  dup3\n    /* \"#utility.yul\":5884:5898   */\n  lt\n    /* \"#utility.yul\":5864:5882   */\n  dup2\n    /* \"#utility.yul\":5861:5899   */\n  eq\n    /* \"#utility.yul\":5858:5860   */\n  iszero\n  tag_110\n  jumpi\n    /* \"#utility.yul\":5914:5932   */\n  tag_111\n  tag_112\n  jump\t// in\ntag_111:\n    /* \"#utility.yul\":5858:5860   */\ntag_110:\n    /* \"#utility.yul\":5679:5948   */\n  pop\n  swap2\n  swap1\n  pop\n  jump\t// out\n    /* \"#utility.yul\":5954:6134   */\ntag_69:\n    /* \"#utility.yul\":6002:6079   */\n  0x4e487b7100000000000000000000000000000000000000000000000000000000\n    /* \"#utility.yul\":5999:6000   */\n  0x00\n    /* \"#utility.yul\":5992:6080   */\n  mstore\n    /* \"#utility.yul\":6099:6103   */\n  0x11\n    /* \"#utility.yul\":6096:6097   */\n  0x04\n    /* \"#utility.yul\":6089:6104   */\n  mstore\n    /* \"#utility.yul\":6123:6127   */\n  0x24\n    /* \"#utility.yul\":6120:6121   */\n  0x00\n    /* \"#utility.yul\":6113:6128   */\n  revert\n    /* \"#utility.yul\":6140:6320   */\ntag_112:\n    /* \"#utility.yul\":6188:6265   */\n  0x4e487b7100000000000000000000000000000000000000000000000000000000\n    /* \"#utility.yul\":6185:6186   */\n  0x00\n    /* \"#utility.yul\":6178:6266   */\n  mstore\n    /* \"#utility.yul\":6285:6289   */\n  0x22\n    /* \"#utility.yul\":6282:6283   */\n  0x04\n    /* \"#utility.yul\":6275:6290   */\n  mstore\n    /* \"#utility.yul\":6309:6313   */\n  0x24\n    /* \"#utility.yul\":6306:6307   */\n  0x00\n    /* \"#utility.yul\":6299:6314   */\n  revert\n    /* \"#utility.yul\":6326:6506   */\ntag_58:\n    /* \"#utility.yul\":6374:6451   */\n  0x4e487b7100000000000000000000000000000000000000000000000000000000\n    /* \"#utility.yul\":6371:6372   */\n  0x00\n    /* \"#utility.yul\":6364:6452   */\n  mstore\n    /* \"#utility.yul\":6471:6475   */\n  0x41\n    /* \"#utility.yul\":6468:6469   */\n  0x04\n    /* \"#utility.yul\":6461:6476   */\n  mstore\n    /* \"#utility.yul\":6495:6499   */\n  0x24\n    /* \"#utility.yul\":6492:6493   */\n  0x00\n    /* \"#utility.yul\":6485:6500   */\n  revert\n    /* \"#utility.yul\":6512:6614   */\ntag_72:\n  0x00\n    /* \"#utility.yul\":6601:6606   */\n  dup2\n    /* \"#utility.yul\":6598:6599   */\n  0x01\n    /* \"#utility.yul\":6594:6607   */\n  shr\n    /* \"#utility.yul\":6573:6607   */\n  swap1\n  pop\n    /* \"#utility.yul\":6563:6614   */\n  swap2\n  swap1\n  pop\n  jump\t// out\n    /* \"#utility.yul\":6620:6742   */\ntag_42:\n    /* \"#utility.yul\":6693:6717   */\n  tag_118\n    /* \"#utility.yul\":6711:6716   */\n  dup2\n    /* \"#utility.yul\":6693:6717   */\n  tag_75\n  jump\t// in\ntag_118:\n    /* \"#utility.yul\":6686:6691   */\n  dup2\n    /* \"#utility.yul\":6683:6718   */\n  eq\n    /* \"#utility.yul\":6673:6675   */\n  tag_119\n  jumpi\n    /* \"#utility.yul\":6732:6733   */\n  0x00\n    /* \"#utility.yul\":6729:6730   */\n  dup1\n    /* \"#utility.yul\":6722:6734   */\n  revert\n    /* \"#utility.yul\":6673:6675   */\ntag_119:\n    /* \"#utility.yul\":6663:6742   */\n  pop\n  jump\t// out\n    /* \"#utility.yul\":6748:6866   */\ntag_46:\n    /* \"#utility.yul\":6819:6841   */\n  tag_121\n    /* \"#utility.yul\":6835:6840   */\n  dup2\n    /* \"#utility.yul\":6819:6841   */\n  tag_101\n  jump\t// in\ntag_121:\n    /* \"#utility.yul\":6812:6817   */\n  dup2\n    /* \"#utility.yul\":6809:6842   */\n  eq\n    /* \"#utility.yul\":6799:6801   */\n  tag_122\n  jumpi\n    /* \"#utility.yul\":6856:6857   */\n  0x00\n    /* \"#utility.yul\":6853:6854   */\n  dup1\n    /* \"#utility.yul\":6846:6858   */\n  revert\n    /* \"#utility.yul\":6799:6801   */\ntag_122:\n    /* \"#utility.yul\":6789:6866   */\n  pop\n  jump\t// out\n    /* \"ERC-20/MyToken.sol\":63:1895  contract MyToken {\r... */\ntag_13:\n  dataSize(sub_0)\n  dup1\n  dataOffset(sub_0)\n  0x00\n  codecopy\n  0x00\n  return\nstop\n\nsub_0: assembly {\n        /* \"ERC-20/MyToken.sol\":63:1895  contract MyToken {\r... */\n      mstore(0x40, 0x80)\n      callvalue\n      dup1\n      iszero\n      tag_1\n      jumpi\n      0x00\n      dup1\n      revert\n    tag_1:\n      pop\n      jumpi(tag_2, lt(calldatasize, 0x04))\n      shr(0xe0, calldataload(0x00))\n      dup1\n      0x70a08231\n      gt\n      tag_11\n      jumpi\n      dup1\n      0x70a08231\n      eq\n      tag_7\n      jumpi\n      dup1\n      0x95d89b41\n      eq\n      tag_8\n      jumpi\n      dup1\n      0xa9059cbb\n      eq\n      tag_9\n      jumpi\n      dup1\n      0xdd62ed3e\n      eq\n      tag_10\n      jumpi\n      jump(tag_2)\n    tag_11:\n      dup1\n      0x06fdde03\n      eq\n      tag_3\n      jumpi\n      dup1\n      0x095ea7b3\n      eq\n      tag_4\n      jumpi\n      dup1\n      0x18160ddd\n      eq\n      tag_5\n      jumpi\n      dup1\n      0x313ce567\n      eq\n      tag_6\n      jumpi\n    tag_2:\n      0x00\n      dup1\n      revert\n        /* \"ERC-20/MyToken.sol\":87:105  string public name */\n    tag_3:\n      tag_12\n      tag_13\n      jump\t// in\n    tag_12:\n      mload(0x40)\n      tag_14\n      swap2\n      swap1\n      tag_15\n      jump\t// in\n    tag_14:\n      mload(0x40)\n      dup1\n      swap2\n      sub\n      swap1\n      return\n        /* \"ERC-20/MyToken.sol\":1609:1889  function approve(address _spender, uint256 _value) public returns (bool success) {\r... */\n    tag_4:\n      tag_16\n      0x04\n      dup1\n      calldatasize\n      sub\n      dup2\n      add\n      swap1\n      tag_17\n      swap2\n      swap1\n      tag_18\n      jump\t// in\n    tag_17:\n      tag_19\n      jump\t// in\n    tag_16:\n      mload(0x40)\n      tag_20\n      swap2\n      swap1\n      tag_21\n      jump\t// in\n    tag_20:\n      mload(0x40)\n      dup1\n      swap2\n      sub\n      swap1\n      return\n        /* \"ERC-20/MyToken.sol\":212:238  uint256 public totalSupply */\n    tag_5:\n      tag_22\n      tag_23\n      jump\t// in\n    tag_22:\n      mload(0x40)\n      tag_24\n      swap2\n      swap1\n      tag_25\n      jump\t// in\n    tag_24:\n      mload(0x40)\n      dup1\n      swap2\n      sub\n      swap1\n      return\n        /* \"ERC-20/MyToken.sol\":184:205  uint8 public decimals */\n    tag_6:\n      tag_26\n      tag_27\n      jump\t// in\n    tag_26:\n      mload(0x40)\n      tag_28\n      swap2\n      swap1\n      tag_29\n      jump\t// in\n    tag_28:\n      mload(0x40)\n      dup1\n      swap2\n      sub\n      swap1\n      return\n        /* \"ERC-20/MyToken.sol\":283:328  mapping (address => uint256) public balanceOf */\n    tag_7:\n      tag_30\n      0x04\n      dup1\n      calldatasize\n      sub\n      dup2\n      add\n      swap1\n      tag_31\n      swap2\n      swap1\n      tag_32\n      jump\t// in\n    tag_31:\n      tag_33\n      jump\t// in\n    tag_30:\n      mload(0x40)\n      tag_34\n      swap2\n      swap1\n      tag_25\n      jump\t// in\n    tag_34:\n      mload(0x40)\n      dup1\n      swap2\n      sub\n      swap1\n      return\n        /* \"ERC-20/MyToken.sol\":133:153  string public symbol */\n    tag_8:\n      tag_35\n      tag_36\n      jump\t// in\n    tag_35:\n      mload(0x40)\n      tag_37\n      swap2\n      swap1\n      tag_15\n      jump\t// in\n    tag_37:\n      mload(0x40)\n      dup1\n      swap2\n      sub\n      swap1\n      return\n        /* \"ERC-20/MyToken.sol\":1208:1599  function transfer(address _to,uint256 _value) public returns (bool success) {\r... */\n    tag_9:\n      tag_38\n      0x04\n      dup1\n      calldatasize\n      sub\n      dup2\n      add\n      swap1\n      tag_39\n      swap2\n      swap1\n      tag_18\n      jump\t// in\n    tag_39:\n      tag_40\n      jump\t// in\n    tag_38:\n      mload(0x40)\n      tag_41\n      swap2\n      swap1\n      tag_21\n      jump\t// in\n    tag_41:\n      mload(0x40)\n      dup1\n      swap2\n      sub\n      swap1\n      return\n        /* \"ERC-20/MyToken.sol\":421:485  mapping(address => mapping(address => uint256)) public allowance */\n    tag_10:\n      tag_42\n      0x04\n      dup1\n      calldatasize\n      sub\n      dup2\n      add\n      swap1\n      tag_43\n      swap2\n      swap1\n      tag_44\n      jump\t// in\n    tag_43:\n      tag_45\n      jump\t// in\n    tag_42:\n      mload(0x40)\n      tag_46\n      swap2\n      swap1\n      tag_25\n      jump\t// in\n    tag_46:\n      mload(0x40)\n      dup1\n      swap2\n      sub\n      swap1\n      return\n        /* \"ERC-20/MyToken.sol\":87:105  string public name */\n    tag_13:\n      0x00\n      dup1\n      sload\n      tag_47\n      swap1\n      tag_48\n      jump\t// in\n    tag_47:\n      dup1\n      0x1f\n      add\n      0x20\n      dup1\n      swap2\n      div\n      mul\n      0x20\n      add\n      mload(0x40)\n      swap1\n      dup2\n      add\n      0x40\n      mstore\n      dup1\n      swap3\n      swap2\n      swap1\n      dup2\n      dup2\n      mstore\n      0x20\n      add\n      dup3\n      dup1\n      sload\n      tag_49\n      swap1\n      tag_48\n      jump\t// in\n    tag_49:\n      dup1\n      iszero\n      tag_50\n      jumpi\n      dup1\n      0x1f\n      lt\n      tag_51\n      jumpi\n      0x0100\n      dup1\n      dup4\n      sload\n      div\n      mul\n      dup4\n      mstore\n      swap2\n      0x20\n      add\n      swap2\n      jump(tag_50)\n    tag_51:\n      dup3\n      add\n      swap2\n      swap1\n      0x00\n      mstore\n      keccak256(0x00, 0x20)\n      swap1\n    tag_52:\n      dup2\n      sload\n      dup2\n      mstore\n      swap1\n      0x01\n      add\n      swap1\n      0x20\n      add\n      dup1\n      dup4\n      gt\n      tag_52\n      jumpi\n      dup3\n      swap1\n      sub\n      0x1f\n      and\n      dup3\n      add\n      swap2\n    tag_50:\n      pop\n      pop\n      pop\n      pop\n      pop\n      dup2\n      jump\t// out\n        /* \"ERC-20/MyToken.sol\":1609:1889  function approve(address _spender, uint256 _value) public returns (bool success) {\r... */\n    tag_19:\n        /* \"ERC-20/MyToken.sol\":1676:1688  bool success */\n      0x00\n        /* \"ERC-20/MyToken.sol\":1729:1730  0 */\n      dup1\n        /* \"ERC-20/MyToken.sol\":1709:1731  _spender != address(0) */\n      0xffffffffffffffffffffffffffffffffffffffff\n      and\n        /* \"ERC-20/MyToken.sol\":1709:1717  _spender */\n      dup4\n        /* \"ERC-20/MyToken.sol\":1709:1731  _spender != address(0) */\n      0xffffffffffffffffffffffffffffffffffffffff\n      and\n      eq\n      iszero\n        /* \"ERC-20/MyToken.sol\":1701:1751  require(_spender != address(0), \"Invalid address\") */\n      tag_54\n      jumpi\n      mload(0x40)\n      0x08c379a000000000000000000000000000000000000000000000000000000000\n      dup2\n      mstore\n      0x04\n      add\n      tag_55\n      swap1\n      tag_56\n      jump\t// in\n    tag_55:\n      mload(0x40)\n      dup1\n      swap2\n      sub\n      swap1\n      revert\n    tag_54:\n        /* \"ERC-20/MyToken.sol\":1797:1803  _value */\n      dup2\n        /* \"ERC-20/MyToken.sol\":1764:1773  allowance */\n      0x05\n        /* \"ERC-20/MyToken.sol\":1764:1785  allowance[msg.sender] */\n      0x00\n        /* \"ERC-20/MyToken.sol\":1774:1784  msg.sender */\n      caller\n        /* \"ERC-20/MyToken.sol\":1764:1785  allowance[msg.sender] */\n      0xffffffffffffffffffffffffffffffffffffffff\n      and\n      0xffffffffffffffffffffffffffffffffffffffff\n      and\n      dup2\n      mstore\n      0x20\n      add\n      swap1\n      dup2\n      mstore\n      0x20\n      add\n      0x00\n      keccak256\n        /* \"ERC-20/MyToken.sol\":1764:1795  allowance[msg.sender][_spender] */\n      0x00\n        /* \"ERC-20/MyToken.sol\":1786:1794  _spender */\n      dup6\n        /* \"ERC-20/MyToken.sol\":1764:1795  allowance[msg.sender][_spender] */\n      0xffffffffffffffffffffffffffffffffffffffff\n      and\n      0xffffffffffffffffffffffffffffffffffffffff\n      and\n      dup2\n      mstore\n      0x20\n      add\n      swap1\n      dup2\n      mstore\n      0x20\n      add\n      0x00\n      keccak256\n        /* \"ERC-20/MyToken.sol\":1764:1803  allowance[msg.sender][_spender] =_value */\n      dup2\n      swap1\n      sstore\n      pop\n        /* \"ERC-20/MyToken.sol\":1842:1850  _spender */\n      dup3\n        /* \"ERC-20/MyToken.sol\":1821:1859  Approval(msg.sender, _spender, _value) */\n      0xffffffffffffffffffffffffffffffffffffffff\n      and\n        /* \"ERC-20/MyToken.sol\":1830:1840  msg.sender */\n      caller\n        /* \"ERC-20/MyToken.sol\":1821:1859  Approval(msg.sender, _spender, _value) */\n      0xffffffffffffffffffffffffffffffffffffffff\n      and\n      0x8c5be1e5ebec7d5bd14f71427d1e84f3dd0314c0f7b2291e5b200ac8c7c3b925\n        /* \"ERC-20/MyToken.sol\":1852:1858  _value */\n      dup5\n        /* \"ERC-20/MyToken.sol\":1821:1859  Approval(msg.sender, _spender, _value) */\n      mload(0x40)\n      tag_57\n      swap2\n      swap1\n      tag_25\n      jump\t// in\n    tag_57:\n      mload(0x40)\n      dup1\n      swap2\n      sub\n      swap1\n      log3\n        /* \"ERC-20/MyToken.sol\":1877:1881  true */\n      0x01\n        /* \"ERC-20/MyToken.sol\":1870:1881  return true */\n      swap1\n      pop\n        /* \"ERC-20/MyToken.sol\":1609:1889  function approve(address _spender, uint256 _value) public returns (bool success) {\r... */\n      swap3\n      swap2\n      pop\n      pop\n      jump\t// out\n        /* \"ERC-20/MyToken.sol\":212:238  uint256 public totalSupply */\n    tag_23:\n      sload(0x03)\n      dup2\n      jump\t// out\n        /* \"ERC-20/MyToken.sol\":184:205  uint8 public decimals */\n    tag_27:\n      0x02\n      0x00\n      swap1\n      sload\n      swap1\n      0x0100\n      exp\n      swap1\n      div\n      0xff\n      and\n      dup2\n      jump\t// out\n        /* \"ERC-20/MyToken.sol\":283:328  mapping (address => uint256) public balanceOf */\n    tag_33:\n      mstore(0x20, 0x04)\n      dup1\n      0x00\n      mstore\n      keccak256(0x00, 0x40)\n      0x00\n      swap2\n      pop\n      swap1\n      pop\n      sload\n      dup2\n      jump\t// out\n        /* \"ERC-20/MyToken.sol\":133:153  string public symbol */\n    tag_36:\n      0x01\n      dup1\n      sload\n      tag_58\n      swap1\n      tag_48\n      jump\t// in\n    tag_58:\n      dup1\n      0x1f\n      add\n      0x20\n      dup1\n      swap2\n      div\n      mul\n      0x20\n      add\n      mload(0x40)\n      swap1\n      dup2\n      add\n      0x40\n      mstore\n      dup1\n      swap3\n      swap2\n      swap1\n      dup2\n      dup2\n      mstore\n      0x20\n      add\n      dup3\n      dup1\n      sload\n      tag_59\n      swap1\n      tag_48\n      jump\t// in\n    tag_59:\n      dup1\n      iszero\n      tag_60\n      jumpi\n      dup1\n      0x1f\n      lt\n      tag_61\n      jumpi\n      0x0100\n      dup1\n      dup4\n      sload\n      div\n      mul\n      dup4\n      mstore\n      swap2\n      0x20\n      add\n      swap2\n      jump(tag_60)\n    tag_61:\n      dup3\n      add\n      swap2\n      swap1\n      0x00\n      mstore\n      keccak256(0x00, 0x20)\n      swap1\n    tag_62:\n      dup2\n      sload\n      dup2\n      mstore\n      swap1\n      0x01\n      add\n      swap1\n      0x20\n      add\n      dup1\n      dup4\n      gt\n      tag_62\n      jumpi\n      dup3\n      swap1\n      sub\n      0x1f\n      and\n      dup3\n      add\n      swap2\n    tag_60:\n      pop\n      pop\n      pop\n      pop\n      pop\n      dup2\n      jump\t// out\n        /* \"ERC-20/MyToken.sol\":1208:1599  function transfer(address _to,uint256 _value) public returns (bool success) {\r... */\n    tag_40:\n        /* \"ERC-20/MyToken.sol\":1270:1282  bool success */\n      0x00\n        /* \"ERC-20/MyToken.sol\":1318:1319  0 */\n      dup1\n        /* \"ERC-20/MyToken.sol\":1303:1320  _to != address(0) */\n      0xffffffffffffffffffffffffffffffffffffffff\n      and\n        /* \"ERC-20/MyToken.sol\":1303:1306  _to */\n      dup4\n        /* \"ERC-20/MyToken.sol\":1303:1320  _to != address(0) */\n      0xffffffffffffffffffffffffffffffffffffffff\n      and\n      eq\n      iszero\n        /* \"ERC-20/MyToken.sol\":1295:1340  require(_to != address(0), \"Invalid address\") */\n      tag_64\n      jumpi\n      mload(0x40)\n      0x08c379a000000000000000000000000000000000000000000000000000000000\n      dup2\n      mstore\n      0x04\n      add\n      tag_65\n      swap1\n      tag_56\n      jump\t// in\n    tag_65:\n      mload(0x40)\n      dup1\n      swap2\n      sub\n      swap1\n      revert\n    tag_64:\n        /* \"ERC-20/MyToken.sol\":1384:1390  _value */\n      dup2\n        /* \"ERC-20/MyToken.sol\":1359:1368  balanceOf */\n      0x04\n        /* \"ERC-20/MyToken.sol\":1359:1380  balanceOf[msg.sender] */\n      0x00\n        /* \"ERC-20/MyToken.sol\":1369:1379  msg.sender */\n      caller\n        /* \"ERC-20/MyToken.sol\":1359:1380  balanceOf[msg.sender] */\n      0xffffffffffffffffffffffffffffffffffffffff\n      and\n      0xffffffffffffffffffffffffffffffffffffffff\n      and\n      dup2\n      mstore\n      0x20\n      add\n      swap1\n      dup2\n      mstore\n      0x20\n      add\n      0x00\n      keccak256\n      sload\n        /* \"ERC-20/MyToken.sol\":1359:1390  balanceOf[msg.sender] >= _value */\n      lt\n      iszero\n        /* \"ERC-20/MyToken.sol\":1351:1412  require(balanceOf[msg.sender] >= _value, \"Insuficient funds\") */\n      tag_66\n      jumpi\n      mload(0x40)\n      0x08c379a000000000000000000000000000000000000000000000000000000000\n      dup2\n      mstore\n      0x04\n      add\n      tag_67\n      swap1\n      tag_68\n      jump\t// in\n    tag_67:\n      mload(0x40)\n      dup1\n      swap2\n      sub\n      swap1\n      revert\n    tag_66:\n        /* \"ERC-20/MyToken.sol\":1477:1483  _value */\n      dup2\n        /* \"ERC-20/MyToken.sol\":1452:1461  balanceOf */\n      0x04\n        /* \"ERC-20/MyToken.sol\":1452:1473  balanceOf[msg.sender] */\n      0x00\n        /* \"ERC-20/MyToken.sol\":1462:1472  msg.sender */\n      caller\n        /* \"ERC-20/MyToken.sol\":1452:1473  balanceOf[msg.sender] */\n      0xffffffffffffffffffffffffffffffffffffffff\n      and\n      0xffffffffffffffffffffffffffffffffffffffff\n      and\n      dup2\n      mstore\n      0x20\n      add\n      swap1\n      dup2\n      mstore\n      0x20\n      add\n      0x00\n      keccak256\n      0x00\n        /* \"ERC-20/MyToken.sol\":1452:1483  balanceOf[msg.sender] -= _value */\n      dup3\n      dup3\n      sload\n      tag_69\n      swap2\n      swap1\n      tag_70\n      jump\t// in\n    tag_69:\n      swap3\n      pop\n      pop\n      dup2\n      swap1\n      sstore\n      pop\n        /* \"ERC-20/MyToken.sol\":1512:1518  _value */\n      dup2\n        /* \"ERC-20/MyToken.sol\":1494:1503  balanceOf */\n      0x04\n        /* \"ERC-20/MyToken.sol\":1494:1508  balanceOf[_to] */\n      0x00\n        /* \"ERC-20/MyToken.sol\":1504:1507  _to */\n      dup6\n        /* \"ERC-20/MyToken.sol\":1494:1508  balanceOf[_to] */\n      0xffffffffffffffffffffffffffffffffffffffff\n      and\n      0xffffffffffffffffffffffffffffffffffffffff\n      and\n      dup2\n      mstore\n      0x20\n      add\n      swap1\n      dup2\n      mstore\n      0x20\n      add\n      0x00\n      keccak256\n      0x00\n        /* \"ERC-20/MyToken.sol\":1494:1518  balanceOf[_to] += _value */\n      dup3\n      dup3\n      sload\n      tag_71\n      swap2\n      swap1\n      tag_72\n      jump\t// in\n    tag_71:\n      swap3\n      pop\n      pop\n      dup2\n      swap1\n      sstore\n      pop\n        /* \"ERC-20/MyToken.sol\":1557:1560  _to */\n      dup3\n        /* \"ERC-20/MyToken.sol\":1536:1569  Transfer(msg.sender, _to, _value) */\n      0xffffffffffffffffffffffffffffffffffffffff\n      and\n        /* \"ERC-20/MyToken.sol\":1545:1555  msg.sender */\n      caller\n        /* \"ERC-20/MyToken.sol\":1536:1569  Transfer(msg.sender, _to, _value) */\n      0xffffffffffffffffffffffffffffffffffffffff\n      and\n      0xddf252ad1be2c89b69c2b068fc378daa952ba7f163c4a11628f55a4df523b3ef\n        /* \"ERC-20/MyToken.sol\":1562:1568  _value */\n      dup5\n        /* \"ERC-20/MyToken.sol\":1536:1569  Transfer(msg.sender, _to, _value) */\n      mload(0x40)\n      tag_73\n      swap2\n      swap1\n      tag_25\n      jump\t// in\n    tag_73:\n      mload(0x40)\n      dup1\n      swap2\n      sub\n      swap1\n      log3\n        /* \"ERC-20/MyToken.sol\":1587:1591  true */\n      0x01\n        /* \"ERC-20/MyToken.sol\":1580:1591  return true */\n      swap1\n      pop\n        /* \"ERC-20/MyToken.sol\":1208:1599  function transfer(address _to,uint256 _value) public returns (bool success) {\r... */\n      swap3\n      swap2\n      pop\n      pop\n      jump\t// out\n        /* \"ERC-20/MyToken.sol\":421:485  mapping(address => mapping(address => uint256)) public allowance */\n    tag_45:\n      mstore(0x20, 0x05)\n      dup2\n      0x00\n      mstore\n      mstore(0x20, keccak256(0x00, 0x40))\n      dup1\n      0x00\n      mstore\n      keccak256(0x00, 0x40)\n      0x00\n      swap2\n      pop\n      swap2\n      pop\n      pop\n      sload\n      dup2\n      jump\t// out\n        /* \"#utility.yul\":7:146   */\n    tag_75:\n      0x00\n        /* \"#utility.yul\":91:97   */\n      dup2\n        /* \"#utility.yul\":78:98   */\n      calldataload\n        /* \"#utility.yul\":69:98   */\n      swap1\n      pop\n        /* \"#utility.yul\":107:140   */\n      tag_77\n        /* \"#utility.yul\":134:139   */\n      dup2\n        /* \"#utility.yul\":107:140   */\n      tag_78\n      jump\t// in\n    tag_77:\n        /* \"#utility.yul\":59:146   */\n      swap3\n      swap2\n      pop\n      pop\n      jump\t// out\n        /* \"#utility.yul\":152:291   */\n    tag_79:\n      0x00\n        /* \"#utility.yul\":236:242   */\n      dup2\n        /* \"#utility.yul\":223:243   */\n      calldataload\n        /* \"#utility.yul\":214:243   */\n      swap1\n      pop\n        /* \"#utility.yul\":252:285   */\n      tag_81\n        /* \"#utility.yul\":279:284   */\n      dup2\n        /* \"#utility.yul\":252:285   */\n      tag_82\n      jump\t// in\n    tag_81:\n        /* \"#utility.yul\":204:291   */\n      swap3\n      swap2\n      pop\n      pop\n      jump\t// out\n        /* \"#utility.yul\":297:559   */\n    tag_32:\n      0x00\n        /* \"#utility.yul\":405:407   */\n      0x20\n        /* \"#utility.yul\":393:402   */\n      dup3\n        /* \"#utility.yul\":384:391   */\n      dup5\n        /* \"#utility.yul\":380:403   */\n      sub\n        /* \"#utility.yul\":376:408   */\n      slt\n        /* \"#utility.yul\":373:375   */\n      iszero\n      tag_84\n      jumpi\n        /* \"#utility.yul\":421:422   */\n      0x00\n        /* \"#utility.yul\":418:419   */\n      dup1\n        /* \"#utility.yul\":411:423   */\n      revert\n        /* \"#utility.yul\":373:375   */\n    tag_84:\n        /* \"#utility.yul\":464:465   */\n      0x00\n        /* \"#utility.yul\":489:542   */\n      tag_85\n        /* \"#utility.yul\":534:541   */\n      dup5\n        /* \"#utility.yul\":525:531   */\n      dup3\n        /* \"#utility.yul\":514:523   */\n      dup6\n        /* \"#utility.yul\":510:532   */\n      add\n        /* \"#utility.yul\":489:542   */\n      tag_75\n      jump\t// in\n    tag_85:\n        /* \"#utility.yul\":479:542   */\n      swap2\n      pop\n        /* \"#utility.yul\":435:552   */\n      pop\n        /* \"#utility.yul\":363:559   */\n      swap3\n      swap2\n      pop\n      pop\n      jump\t// out\n        /* \"#utility.yul\":565:972   */\n    tag_44:\n      0x00\n      dup1\n        /* \"#utility.yul\":690:692   */\n      0x40\n        /* \"#utility.yul\":678:687   */\n      dup4\n        /* \"#utility.yul\":669:676   */\n      dup6\n        /* \"#utility.yul\":665:688   */\n      sub\n        /* \"#utility.yul\":661:693   */\n      slt\n        /* \"#utility.yul\":658:660   */\n      iszero\n      tag_87\n      jumpi\n        /* \"#utility.yul\":706:707   */\n      0x00\n        /* \"#utility.yul\":703:704   */\n      dup1\n        /* \"#utility.yul\":696:708   */\n      revert\n        /* \"#utility.yul\":658:660   */\n    tag_87:\n        /* \"#utility.yul\":749:750   */\n      0x00\n        /* \"#utility.yul\":774:827   */\n      tag_88\n        /* \"#utility.yul\":819:826   */\n      dup6\n        /* \"#utility.yul\":810:816   */\n      dup3\n        /* \"#utility.yul\":799:808   */\n      dup7\n        /* \"#utility.yul\":795:817   */\n      add\n        /* \"#utility.yul\":774:827   */\n      tag_75\n      jump\t// in\n    tag_88:\n        /* \"#utility.yul\":764:827   */\n      swap3\n      pop\n        /* \"#utility.yul\":720:837   */\n      pop\n        /* \"#utility.yul\":876:878   */\n      0x20\n        /* \"#utility.yul\":902:955   */\n      tag_89\n        /* \"#utility.yul\":947:954   */\n      dup6\n        /* \"#utility.yul\":938:944   */\n      dup3\n        /* \"#utility.yul\":927:936   */\n      dup7\n        /* \"#utility.yul\":923:945   */\n      add\n        /* \"#utility.yul\":902:955   */\n      tag_75\n      jump\t// in\n    tag_89:\n        /* \"#utility.yul\":892:955   */\n      swap2\n      pop\n        /* \"#utility.yul\":847:965   */\n      pop\n        /* \"#utility.yul\":648:972   */\n      swap3\n      pop\n      swap3\n      swap1\n      pop\n      jump\t// out\n        /* \"#utility.yul\":978:1385   */\n    tag_18:\n      0x00\n      dup1\n        /* \"#utility.yul\":1103:1105   */\n      0x40\n        /* \"#utility.yul\":1091:1100   */\n      dup4\n        /* \"#utility.yul\":1082:1089   */\n      dup6\n        /* \"#utility.yul\":1078:1101   */\n      sub\n        /* \"#utility.yul\":1074:1106   */\n      slt\n        /* \"#utility.yul\":1071:1073   */\n      iszero\n      tag_91\n      jumpi\n        /* \"#utility.yul\":1119:1120   */\n      0x00\n        /* \"#utility.yul\":1116:1117   */\n      dup1\n        /* \"#utility.yul\":1109:1121   */\n      revert\n        /* \"#utility.yul\":1071:1073   */\n    tag_91:\n        /* \"#utility.yul\":1162:1163   */\n      0x00\n        /* \"#utility.yul\":1187:1240   */\n      tag_92\n        /* \"#utility.yul\":1232:1239   */\n      dup6\n        /* \"#utility.yul\":1223:1229   */\n      dup3\n        /* \"#utility.yul\":1212:1221   */\n      dup7\n        /* \"#utility.yul\":1208:1230   */\n      add\n        /* \"#utility.yul\":1187:1240   */\n      tag_75\n      jump\t// in\n    tag_92:\n        /* \"#utility.yul\":1177:1240   */\n      swap3\n      pop\n        /* \"#utility.yul\":1133:1250   */\n      pop\n        /* \"#utility.yul\":1289:1291   */\n      0x20\n        /* \"#utility.yul\":1315:1368   */\n      tag_93\n        /* \"#utility.yul\":1360:1367   */\n      dup6\n        /* \"#utility.yul\":1351:1357   */\n      dup3\n        /* \"#utility.yul\":1340:1349   */\n      dup7\n        /* \"#utility.yul\":1336:1358   */\n      add\n        /* \"#utility.yul\":1315:1368   */\n      tag_79\n      jump\t// in\n    tag_93:\n        /* \"#utility.yul\":1305:1368   */\n      swap2\n      pop\n        /* \"#utility.yul\":1260:1378   */\n      pop\n        /* \"#utility.yul\":1061:1385   */\n      swap3\n      pop\n      swap3\n      swap1\n      pop\n      jump\t// out\n        /* \"#utility.yul\":1391:1500   */\n    tag_94:\n        /* \"#utility.yul\":1472:1493   */\n      tag_96\n        /* \"#utility.yul\":1487:1492   */\n      dup2\n        /* \"#utility.yul\":1472:1493   */\n      tag_97\n      jump\t// in\n    tag_96:\n        /* \"#utility.yul\":1467:1470   */\n      dup3\n        /* \"#utility.yul\":1460:1494   */\n      mstore\n        /* \"#utility.yul\":1450:1500   */\n      pop\n      pop\n      jump\t// out\n        /* \"#utility.yul\":1506:1870   */\n    tag_98:\n      0x00\n        /* \"#utility.yul\":1622:1661   */\n      tag_100\n        /* \"#utility.yul\":1655:1660   */\n      dup3\n        /* \"#utility.yul\":1622:1661   */\n      tag_101\n      jump\t// in\n    tag_100:\n        /* \"#utility.yul\":1677:1748   */\n      tag_102\n        /* \"#utility.yul\":1741:1747   */\n      dup2\n        /* \"#utility.yul\":1736:1739   */\n      dup6\n        /* \"#utility.yul\":1677:1748   */\n      tag_103\n      jump\t// in\n    tag_102:\n        /* \"#utility.yul\":1670:1748   */\n      swap4\n      pop\n        /* \"#utility.yul\":1757:1809   */\n      tag_104\n        /* \"#utility.yul\":1802:1808   */\n      dup2\n        /* \"#utility.yul\":1797:1800   */\n      dup6\n        /* \"#utility.yul\":1790:1794   */\n      0x20\n        /* \"#utility.yul\":1783:1788   */\n      dup7\n        /* \"#utility.yul\":1779:1795   */\n      add\n        /* \"#utility.yul\":1757:1809   */\n      tag_105\n      jump\t// in\n    tag_104:\n        /* \"#utility.yul\":1834:1863   */\n      tag_106\n        /* \"#utility.yul\":1856:1862   */\n      dup2\n        /* \"#utility.yul\":1834:1863   */\n      tag_107\n      jump\t// in\n    tag_106:\n        /* \"#utility.yul\":1829:1832   */\n      dup5\n        /* \"#utility.yul\":1825:1864   */\n      add\n        /* \"#utility.yul\":1818:1864   */\n      swap2\n      pop\n        /* \"#utility.yul\":1598:1870   */\n      pop\n      swap3\n      swap2\n      pop\n      pop\n      jump\t// out\n        /* \"#utility.yul\":1876:2189   */\n    tag_108:\n      0x00\n        /* \"#utility.yul\":2039:2106   */\n      tag_110\n        /* \"#utility.yul\":2103:2105   */\n      0x0f\n        /* \"#utility.yul\":2098:2101   */\n      dup4\n        /* \"#utility.yul\":2039:2106   */\n      tag_103\n      jump\t// in\n    tag_110:\n        /* \"#utility.yul\":2032:2106   */\n      swap2\n      pop\n        /* \"#utility.yul\":2136:2153   */\n      0x496e76616c696420616464726573730000000000000000000000000000000000\n        /* \"#utility.yul\":2132:2133   */\n      0x00\n        /* \"#utility.yul\":2127:2130   */\n      dup4\n        /* \"#utility.yul\":2123:2134   */\n      add\n        /* \"#utility.yul\":2116:2154   */\n      mstore\n        /* \"#utility.yul\":2180:2182   */\n      0x20\n        /* \"#utility.yul\":2175:2178   */\n      dup3\n        /* \"#utility.yul\":2171:2183   */\n      add\n        /* \"#utility.yul\":2164:2183   */\n      swap1\n      pop\n        /* \"#utility.yul\":2022:2189   */\n      swap2\n      swap1\n      pop\n      jump\t// out\n        /* \"#utility.yul\":2195:2510   */\n    tag_111:\n      0x00\n        /* \"#utility.yul\":2358:2425   */\n      tag_113\n        /* \"#utility.yul\":2422:2424   */\n      0x11\n        /* \"#utility.yul\":2417:2420   */\n      dup4\n        /* \"#utility.yul\":2358:2425   */\n      tag_103\n      jump\t// in\n    tag_113:\n        /* \"#utility.yul\":2351:2425   */\n      swap2\n      pop\n        /* \"#utility.yul\":2455:2474   */\n      0x496e737566696369656e742066756e6473000000000000000000000000000000\n        /* \"#utility.yul\":2451:2452   */\n      0x00\n        /* \"#utility.yul\":2446:2449   */\n      dup4\n        /* \"#utility.yul\":2442:2453   */\n      add\n        /* \"#utility.yul\":2435:2475   */\n      mstore\n        /* \"#utility.yul\":2501:2503   */\n      0x20\n        /* \"#utility.yul\":2496:2499   */\n      dup3\n        /* \"#utility.yul\":2492:2504   */\n      add\n        /* \"#utility.yul\":2485:2504   */\n      swap1\n      pop\n        /* \"#utility.yul\":2341:2510   */\n      swap2\n      swap1\n      pop\n      jump\t// out\n        /* \"#utility.yul\":2516:2634   */\n    tag_114:\n        /* \"#utility.yul\":2603:2627   */\n      tag_116\n        /* \"#utility.yul\":2621:2626   */\n      dup2\n        /* \"#utility.yul\":2603:2627   */\n      tag_117\n      jump\t// in\n    tag_116:\n        /* \"#utility.yul\":2598:2601   */\n      dup3\n        /* \"#utility.yul\":2591:2628   */\n      mstore\n        /* \"#utility.yul\":2581:2634   */\n      pop\n      pop\n      jump\t// out\n        /* \"#utility.yul\":2640:2752   */\n    tag_118:\n        /* \"#utility.yul\":2723:2745   */\n      tag_120\n        /* \"#utility.yul\":2739:2744   */\n      dup2\n        /* \"#utility.yul\":2723:2745   */\n      tag_121\n      jump\t// in\n    tag_120:\n        /* \"#utility.yul\":2718:2721   */\n      dup3\n        /* \"#utility.yul\":2711:2746   */\n      mstore\n        /* \"#utility.yul\":2701:2752   */\n      pop\n      pop\n      jump\t// out\n        /* \"#utility.yul\":2758:2968   */\n    tag_21:\n      0x00\n        /* \"#utility.yul\":2883:2885   */\n      0x20\n        /* \"#utility.yul\":2872:2881   */\n      dup3\n        /* \"#utility.yul\":2868:2886   */\n      add\n        /* \"#utility.yul\":2860:2886   */\n      swap1\n      pop\n        /* \"#utility.yul\":2896:2961   */\n      tag_123\n        /* \"#utility.yul\":2958:2959   */\n      0x00\n        /* \"#utility.yul\":2947:2956   */\n      dup4\n        /* \"#utility.yul\":2943:2960   */\n      add\n        /* \"#utility.yul\":2934:2940   */\n      dup5\n        /* \"#utility.yul\":2896:2961   */\n      tag_94\n      jump\t// in\n    tag_123:\n        /* \"#utility.yul\":2850:2968   */\n      swap3\n      swap2\n      pop\n      pop\n      jump\t// out\n        /* \"#utility.yul\":2974:3287   */\n    tag_15:\n      0x00\n        /* \"#utility.yul\":3125:3127   */\n      0x20\n        /* \"#utility.yul\":3114:3123   */\n      dup3\n        /* \"#utility.yul\":3110:3128   */\n      add\n        /* \"#utility.yul\":3102:3128   */\n      swap1\n      pop\n        /* \"#utility.yul\":3174:3183   */\n      dup2\n        /* \"#utility.yul\":3168:3172   */\n      dup2\n        /* \"#utility.yul\":3164:3184   */\n      sub\n        /* \"#utility.yul\":3160:3161   */\n      0x00\n        /* \"#utility.yul\":3149:3158   */\n      dup4\n        /* \"#utility.yul\":3145:3162   */\n      add\n        /* \"#utility.yul\":3138:3185   */\n      mstore\n        /* \"#utility.yul\":3202:3280   */\n      tag_125\n        /* \"#utility.yul\":3275:3279   */\n      dup2\n        /* \"#utility.yul\":3266:3272   */\n      dup5\n        /* \"#utility.yul\":3202:3280   */\n      tag_98\n      jump\t// in\n    tag_125:\n        /* \"#utility.yul\":3194:3280   */\n      swap1\n      pop\n        /* \"#utility.yul\":3092:3287   */\n      swap3\n      swap2\n      pop\n      pop\n      jump\t// out\n        /* \"#utility.yul\":3293:3712   */\n    tag_56:\n      0x00\n        /* \"#utility.yul\":3497:3499   */\n      0x20\n        /* \"#utility.yul\":3486:3495   */\n      dup3\n        /* \"#utility.yul\":3482:3500   */\n      add\n        /* \"#utility.yul\":3474:3500   */\n      swap1\n      pop\n        /* \"#utility.yul\":3546:3555   */\n      dup2\n        /* \"#utility.yul\":3540:3544   */\n      dup2\n        /* \"#utility.yul\":3536:3556   */\n      sub\n        /* \"#utility.yul\":3532:3533   */\n      0x00\n        /* \"#utility.yul\":3521:3530   */\n      dup4\n        /* \"#utility.yul\":3517:3534   */\n      add\n        /* \"#utility.yul\":3510:3557   */\n      mstore\n        /* \"#utility.yul\":3574:3705   */\n      tag_127\n        /* \"#utility.yul\":3700:3704   */\n      dup2\n        /* \"#utility.yul\":3574:3705   */\n      tag_108\n      jump\t// in\n    tag_127:\n        /* \"#utility.yul\":3566:3705   */\n      swap1\n      pop\n        /* \"#utility.yul\":3464:3712   */\n      swap2\n      swap1\n      pop\n      jump\t// out\n        /* \"#utility.yul\":3718:4137   */\n    tag_68:\n      0x00\n        /* \"#utility.yul\":3922:3924   */\n      0x20\n        /* \"#utility.yul\":3911:3920   */\n      dup3\n        /* \"#utility.yul\":3907:3925   */\n      add\n        /* \"#utility.yul\":3899:3925   */\n      swap1\n      pop\n        /* \"#utility.yul\":3971:3980   */\n      dup2\n        /* \"#utility.yul\":3965:3969   */\n      dup2\n        /* \"#utility.yul\":3961:3981   */\n      sub\n        /* \"#utility.yul\":3957:3958   */\n      0x00\n        /* \"#utility.yul\":3946:3955   */\n      dup4\n        /* \"#utility.yul\":3942:3959   */\n      add\n        /* \"#utility.yul\":3935:3982   */\n      mstore\n        /* \"#utility.yul\":3999:4130   */\n      tag_129\n        /* \"#utility.yul\":4125:4129   */\n      dup2\n        /* \"#utility.yul\":3999:4130   */\n      tag_111\n      jump\t// in\n    tag_129:\n        /* \"#utility.yul\":3991:4130   */\n      swap1\n      pop\n        /* \"#utility.yul\":3889:4137   */\n      swap2\n      swap1\n      pop\n      jump\t// out\n        /* \"#utility.yul\":4143:4365   */\n    tag_25:\n      0x00\n        /* \"#utility.yul\":4274:4276   */\n      0x20\n        /* \"#utility.yul\":4263:4272   */\n      dup3\n        /* \"#utility.yul\":4259:4277   */\n      add\n        /* \"#utility.yul\":4251:4277   */\n      swap1\n      pop\n        /* \"#utility.yul\":4287:4358   */\n      tag_131\n        /* \"#utility.yul\":4355:4356   */\n      0x00\n        /* \"#utility.yul\":4344:4353   */\n      dup4\n        /* \"#utility.yul\":4340:4357   */\n      add\n        /* \"#utility.yul\":4331:4337   */\n      dup5\n        /* \"#utility.yul\":4287:4358   */\n      tag_114\n      jump\t// in\n    tag_131:\n        /* \"#utility.yul\":4241:4365   */\n      swap3\n      swap2\n      pop\n      pop\n      jump\t// out\n        /* \"#utility.yul\":4371:4585   */\n    tag_29:\n      0x00\n        /* \"#utility.yul\":4498:4500   */\n      0x20\n        /* \"#utility.yul\":4487:4496   */\n      dup3\n        /* \"#utility.yul\":4483:4501   */\n      add\n        /* \"#utility.yul\":4475:4501   */\n      swap1\n      pop\n        /* \"#utility.yul\":4511:4578   */\n      tag_133\n        /* \"#utility.yul\":4575:4576   */\n      0x00\n        /* \"#utility.yul\":4564:4573   */\n      dup4\n        /* \"#utility.yul\":4560:4577   */\n      add\n        /* \"#utility.yul\":4551:4557   */\n      dup5\n        /* \"#utility.yul\":4511:4578   */\n      tag_118\n      jump\t// in\n    tag_133:\n        /* \"#utility.yul\":4465:4585   */\n      swap3\n      swap2\n      pop\n      pop\n      jump\t// out\n        /* \"#utility.yul\":4591:4690   */\n    tag_101:\n      0x00\n        /* \"#utility.yul\":4677:4682   */\n      dup2\n        /* \"#utility.yul\":4671:4683   */\n      mload\n        /* \"#utility.yul\":4661:4683   */\n      swap1\n      pop\n        /* \"#utility.yul\":4650:4690   */\n      swap2\n      swap1\n      pop\n      jump\t// out\n        /* \"#utility.yul\":4696:4865   */\n    tag_103:\n      0x00\n        /* \"#utility.yul\":4814:4820   */\n      dup3\n        /* \"#utility.yul\":4809:4812   */\n      dup3\n        /* \"#utility.yul\":4802:4821   */\n      mstore\n        /* \"#utility.yul\":4854:4858   */\n      0x20\n        /* \"#utility.yul\":4849:4852   */\n      dup3\n        /* \"#utility.yul\":4845:4859   */\n      add\n        /* \"#utility.yul\":4830:4859   */\n      swap1\n      pop\n        /* \"#utility.yul\":4792:4865   */\n      swap3\n      swap2\n      pop\n      pop\n      jump\t// out\n        /* \"#utility.yul\":4871:5176   */\n    tag_72:\n      0x00\n        /* \"#utility.yul\":4930:4950   */\n      tag_137\n        /* \"#utility.yul\":4948:4949   */\n      dup3\n        /* \"#utility.yul\":4930:4950   */\n      tag_117\n      jump\t// in\n    tag_137:\n        /* \"#utility.yul\":4925:4950   */\n      swap2\n      pop\n        /* \"#utility.yul\":4964:4984   */\n      tag_138\n        /* \"#utility.yul\":4982:4983   */\n      dup4\n        /* \"#utility.yul\":4964:4984   */\n      tag_117\n      jump\t// in\n    tag_138:\n        /* \"#utility.yul\":4959:4984   */\n      swap3\n      pop\n        /* \"#utility.yul\":5118:5119   */\n      dup3\n        /* \"#utility.yul\":5050:5116   */\n      0xffffffffffffffffffffffffffffffffffffffffffffffffffffffffffffffff\n        /* \"#utility.yul\":5046:5120   */\n      sub\n        /* \"#utility.yul\":5043:5044   */\n      dup3\n        /* \"#utility.yul\":5040:5121   */\n      gt\n        /* \"#utility.yul\":5037:5039   */\n      iszero\n      tag_139\n      jumpi\n        /* \"#utility.yul\":5124:5142   */\n      tag_140\n      tag_141\n      jump\t// in\n    tag_140:\n        /* \"#utility.yul\":5037:5039   */\n    tag_139:\n        /* \"#utility.yul\":5168:5169   */\n      dup3\n        /* \"#utility.yul\":5165:5166   */\n      dup3\n        /* \"#utility.yul\":5161:5170   */\n      add\n        /* \"#utility.yul\":5154:5170   */\n      swap1\n      pop\n        /* \"#utility.yul\":4915:5176   */\n      swap3\n      swap2\n      pop\n      pop\n      jump\t// out\n        /* \"#utility.yul\":5182:5373   */\n    tag_70:\n      0x00\n        /* \"#utility.yul\":5242:5262   */\n      tag_143\n        /* \"#utility.yul\":5260:5261   */\n      dup3\n        /* \"#utility.yul\":5242:5262   */\n      tag_117\n      jump\t// in\n    tag_143:\n        /* \"#utility.yul\":5237:5262   */\n      swap2\n      pop\n        /* \"#utility.yul\":5276:5296   */\n      tag_144\n        /* \"#utility.yul\":5294:5295   */\n      dup4\n        /* \"#utility.yul\":5276:5296   */\n      tag_117\n      jump\t// in\n    tag_144:\n        /* \"#utility.yul\":5271:5296   */\n      swap3\n      pop\n        /* \"#utility.yul\":5315:5316   */\n      dup3\n        /* \"#utility.yul\":5312:5313   */\n      dup3\n        /* \"#utility.yul\":5309:5317   */\n      lt\n        /* \"#utility.yul\":5306:5308   */\n      iszero\n      tag_145\n      jumpi\n        /* \"#utility.yul\":5320:5338   */\n      tag_146\n      tag_141\n      jump\t// in\n    tag_146:\n        /* \"#utility.yul\":5306:5308   */\n    tag_145:\n        /* \"#utility.yul\":5365:5366   */\n      dup3\n        /* \"#utility.yul\":5362:5363   */\n      dup3\n        /* \"#utility.yul\":5358:5367   */\n      sub\n        /* \"#utility.yul\":5350:5367   */\n      swap1\n      pop\n        /* \"#utility.yul\":5227:5373   */\n      swap3\n      swap2\n      pop\n      pop\n      jump\t// out\n        /* \"#utility.yul\":5379:5475   */\n    tag_147:\n      0x00\n        /* \"#utility.yul\":5445:5469   */\n      tag_149\n        /* \"#utility.yul\":5463:5468   */\n      dup3\n        /* \"#utility.yul\":5445:5469   */\n      tag_150\n      jump\t// in\n    tag_149:\n        /* \"#utility.yul\":5434:5469   */\n      swap1\n      pop\n        /* \"#utility.yul\":5424:5475   */\n      swap2\n      swap1\n      pop\n      jump\t// out\n        /* \"#utility.yul\":5481:5571   */\n    tag_97:\n      0x00\n        /* \"#utility.yul\":5558:5563   */\n      dup2\n        /* \"#utility.yul\":5551:5564   */\n      iszero\n        /* \"#utility.yul\":5544:5565   */\n      iszero\n        /* \"#utility.yul\":5533:5565   */\n      swap1\n      pop\n        /* \"#utility.yul\":5523:5571   */\n      swap2\n      swap1\n      pop\n      jump\t// out\n        /* \"#utility.yul\":5577:5703   */\n    tag_150:\n      0x00\n        /* \"#utility.yul\":5654:5696   */\n      0xffffffffffffffffffffffffffffffffffffffff\n        /* \"#utility.yul\":5647:5652   */\n      dup3\n        /* \"#utility.yul\":5643:5697   */\n      and\n        /* \"#utility.yul\":5632:5697   */\n      swap1\n      pop\n        /* \"#utility.yul\":5622:5703   */\n      swap2\n      swap1\n      pop\n      jump\t// out\n        /* \"#utility.yul\":5709:5786   */\n    tag_117:\n      0x00\n        /* \"#utility.yul\":5775:5780   */\n      dup2\n        /* \"#utility.yul\":5764:5780   */\n      swap1\n      pop\n        /* \"#utility.yul\":5754:5786   */\n      swap2\n      swap1\n      pop\n      jump\t// out\n        /* \"#utility.yul\":5792:5878   */\n    tag_121:\n      0x00\n        /* \"#utility.yul\":5867:5871   */\n      0xff\n        /* \"#utility.yul\":5860:5865   */\n      dup3\n        /* \"#utility.yul\":5856:5872   */\n      and\n        /* \"#utility.yul\":5845:5872   */\n      swap1\n      pop\n        /* \"#utility.yul\":5835:5878   */\n      swap2\n      swap1\n      pop\n      jump\t// out\n        /* \"#utility.yul\":5884:6191   */\n    tag_105:\n        /* \"#utility.yul\":5952:5953   */\n      0x00\n        /* \"#utility.yul\":5962:6075   */\n    tag_156:\n        /* \"#utility.yul\":5976:5982   */\n      dup4\n        /* \"#utility.yul\":5973:5974   */\n      dup2\n        /* \"#utility.yul\":5970:5983   */\n      lt\n        /* \"#utility.yul\":5962:6075   */\n      iszero\n      tag_158\n      jumpi\n        /* \"#utility.yul\":6061:6062   */\n      dup1\n        /* \"#utility.yul\":6056:6059   */\n      dup3\n        /* \"#utility.yul\":6052:6063   */\n      add\n        /* \"#utility.yul\":6046:6064   */\n      mload\n        /* \"#utility.yul\":6042:6043   */\n      dup2\n        /* \"#utility.yul\":6037:6040   */\n      dup5\n        /* \"#utility.yul\":6033:6044   */\n      add\n        /* \"#utility.yul\":6026:6065   */\n      mstore\n        /* \"#utility.yul\":5998:6000   */\n      0x20\n        /* \"#utility.yul\":5995:5996   */\n      dup2\n        /* \"#utility.yul\":5991:6001   */\n      add\n        /* \"#utility.yul\":5986:6001   */\n      swap1\n      pop\n        /* \"#utility.yul\":5962:6075   */\n      jump(tag_156)\n    tag_158:\n        /* \"#utility.yul\":6093:6099   */\n      dup4\n        /* \"#utility.yul\":6090:6091   */\n      dup2\n        /* \"#utility.yul\":6087:6100   */\n      gt\n        /* \"#utility.yul\":6084:6086   */\n      iszero\n      tag_159\n      jumpi\n        /* \"#utility.yul\":6173:6174   */\n      0x00\n        /* \"#utility.yul\":6164:6170   */\n      dup5\n        /* \"#utility.yul\":6159:6162   */\n      dup5\n        /* \"#utility.yul\":6155:6171   */\n      add\n        /* \"#utility.yul\":6148:6175   */\n      mstore\n        /* \"#utility.yul\":6084:6086   */\n    tag_159:\n        /* \"#utility.yul\":5933:6191   */\n      pop\n      pop\n      pop\n      pop\n      jump\t// out\n        /* \"#utility.yul\":6197:6517   */\n    tag_48:\n      0x00\n        /* \"#utility.yul\":6278:6279   */\n      0x02\n        /* \"#utility.yul\":6272:6276   */\n      dup3\n        /* \"#utility.yul\":6268:6280   */\n      div\n        /* \"#utility.yul\":6258:6280   */\n      swap1\n      pop\n        /* \"#utility.yul\":6325:6326   */\n      0x01\n        /* \"#utility.yul\":6319:6323   */\n      dup3\n        /* \"#utility.yul\":6315:6327   */\n      and\n        /* \"#utility.yul\":6346:6364   */\n      dup1\n        /* \"#utility.yul\":6336:6338   */\n      tag_161\n      jumpi\n        /* \"#utility.yul\":6402:6406   */\n      0x7f\n        /* \"#utility.yul\":6394:6400   */\n      dup3\n        /* \"#utility.yul\":6390:6407   */\n      and\n        /* \"#utility.yul\":6380:6407   */\n      swap2\n      pop\n        /* \"#utility.yul\":6336:6338   */\n    tag_161:\n        /* \"#utility.yul\":6464:6466   */\n      0x20\n        /* \"#utility.yul\":6456:6462   */\n      dup3\n        /* \"#utility.yul\":6453:6467   */\n      lt\n        /* \"#utility.yul\":6433:6451   */\n      dup2\n        /* \"#utility.yul\":6430:6468   */\n      eq\n        /* \"#utility.yul\":6427:6429   */\n      iszero\n      tag_162\n      jumpi\n        /* \"#utility.yul\":6483:6501   */\n      tag_163\n      tag_164\n      jump\t// in\n    tag_163:\n        /* \"#utility.yul\":6427:6429   */\n    tag_162:\n        /* \"#utility.yul\":6248:6517   */\n      pop\n      swap2\n      swap1\n      pop\n      jump\t// out\n        /* \"#utility.yul\":6523:6703   */\n    tag_141:\n        /* \"#utility.yul\":6571:6648   */\n      0x4e487b7100000000000000000000000000000000000000000000000000000000\n        /* \"#utility.yul\":6568:6569   */\n      0x00\n        /* \"#utility.yul\":6561:6649   */\n      mstore\n        /* \"#utility.yul\":6668:6672   */\n      0x11\n        /* \"#utility.yul\":6665:6666   */\n      0x04\n        /* \"#utility.yul\":6658:6673   */\n      mstore\n        /* \"#utility.yul\":6692:6696   */\n      0x24\n        /* \"#utility.yul\":6689:6690   */\n      0x00\n        /* \"#utility.yul\":6682:6697   */\n      revert\n        /* \"#utility.yul\":6709:6889   */\n    tag_164:\n        /* \"#utility.yul\":6757:6834   */\n      0x4e487b7100000000000000000000000000000000000000000000000000000000\n        /* \"#utility.yul\":6754:6755   */\n      0x00\n        /* \"#utility.yul\":6747:6835   */\n      mstore\n        /* \"#utility.yul\":6854:6858   */\n      0x22\n        /* \"#utility.yul\":6851:6852   */\n      0x04\n        /* \"#utility.yul\":6844:6859   */\n      mstore\n        /* \"#utility.yul\":6878:6882   */\n      0x24\n        /* \"#utility.yul\":6875:6876   */\n      0x00\n        /* \"#utility.yul\":6868:6883   */\n      revert\n        /* \"#utility.yul\":6895:6997   */\n    tag_107:\n      0x00\n        /* \"#utility.yul\":6987:6989   */\n      0x1f\n        /* \"#utility.yul\":6983:6990   */\n      not\n        /* \"#utility.yul\":6978:6980   */\n      0x1f\n        /* \"#utility.yul\":6971:6976   */\n      dup4\n        /* \"#utility.yul\":6967:6981   */\n      add\n        /* \"#utility.yul\":6963:6991   */\n      and\n        /* \"#utility.yul\":6953:6991   */\n      swap1\n      pop\n        /* \"#utility.yul\":6943:6997   */\n      swap2\n      swap1\n      pop\n      jump\t// out\n        /* \"#utility.yul\":7003:7125   */\n    tag_78:\n        /* \"#utility.yul\":7076:7100   */\n      tag_169\n        /* \"#utility.yul\":7094:7099   */\n      dup2\n        /* \"#utility.yul\":7076:7100   */\n      tag_147\n      jump\t// in\n    tag_169:\n        /* \"#utility.yul\":7069:7074   */\n      dup2\n        /* \"#utility.yul\":7066:7101   */\n      eq\n        /* \"#utility.yul\":7056:7058   */\n      tag_170\n      jumpi\n        /* \"#utility.yul\":7115:7116   */\n      0x00\n        /* \"#utility.yul\":7112:7113   */\n      dup1\n        /* \"#utility.yul\":7105:7117   */\n      revert\n        /* \"#utility.yul\":7056:7058   */\n    tag_170:\n        /* \"#utility.yul\":7046:7125   */\n      pop\n      jump\t// out\n        /* \"#utility.yul\":7131:7253   */\n    tag_82:\n        /* \"#utility.yul\":7204:7228   */\n      tag_172\n        /* \"#utility.yul\":7222:7227   */\n      dup2\n        /* \"#utility.yul\":7204:7228   */\n      tag_117\n      jump\t// in\n    tag_172:\n        /* \"#utility.yul\":7197:7202   */\n      dup2\n        /* \"#utility.yul\":7194:7229   */\n      eq\n        /* \"#utility.yul\":7184:7186   */\n      tag_173\n      jumpi\n        /* \"#utility.yul\":7243:7244   */\n      0x00\n        /* \"#utility.yul\":7240:7241   */\n      dup1\n        /* \"#utility.yul\":7233:7245   */\n      revert\n        /* \"#utility.yul\":7184:7186   */\n    tag_173:\n        /* \"#utility.yul\":7174:7253   */\n      pop\n      jump\t// out\n\n    auxdata: 0xa2646970667358221220da34e39204badb08daf35b9a764e96c9d27be1c319c64284255ea3abcd52f84664736f6c63430008000033\n}\n",
				"bytecode": {
					"linkReferences": {},
					"object": "60806040523480156200001157600080fd5b50604051620011f4380380620011f4833981810160405281019062000037919062000258565b83600090805190602001906200004f92919062000108565b5082600190805190602001906200006892919062000108565b5081600260006101000a81548160ff021916908360ff160217905550600260009054906101000a900460ff1660ff16600a620000a59190620003b8565b81620000b29190620004f5565b600381905550600354600460003373ffffffffffffffffffffffffffffffffffffffff1673ffffffffffffffffffffffffffffffffffffffff1681526020019081526020016000208190555050505050620006a7565b8280546200011690620005a3565b90600052602060002090601f0160209004810192826200013a576000855562000186565b82601f106200015557805160ff191683800117855562000186565b8280016001018555821562000186579182015b828111156200018557825182559160200191906001019062000168565b5b50905062000195919062000199565b5090565b5b80821115620001b45760008160009055506001016200019a565b5090565b6000620001cf620001c9846200032a565b620002f6565b905082815260208101848484011115620001e857600080fd5b620001f58482856200056d565b509392505050565b600082601f8301126200020f57600080fd5b815162000221848260208601620001b8565b91505092915050565b6000815190506200023b8162000673565b92915050565b60008151905062000252816200068d565b92915050565b600080600080608085870312156200026f57600080fd5b600085015167ffffffffffffffff8111156200028a57600080fd5b6200029887828801620001fd565b945050602085015167ffffffffffffffff811115620002b657600080fd5b620002c487828801620001fd565b9350506040620002d78782880162000241565b9250506060620002ea878288016200022a565b91505092959194509250565b6000604051905081810181811067ffffffffffffffff8211171562000320576200031f62000637565b5b8060405250919050565b600067ffffffffffffffff82111562000348576200034762000637565b5b601f19601f8301169050602081019050919050565b6000808291508390505b6001851115620003af57808604811115620003875762000386620005d9565b5b6001851615620003975780820291505b8081029050620003a78562000666565b945062000367565b94509492505050565b6000620003c58262000556565b9150620003d28362000556565b9250620004017fffffffffffffffffffffffffffffffffffffffffffffffffffffffffffffffff848462000409565b905092915050565b6000826200041b5760019050620004ee565b816200042b5760009050620004ee565b81600181146200044457600281146200044f5762000485565b6001915050620004ee565b60ff841115620004645762000463620005d9565b5b8360020a9150848211156200047e576200047d620005d9565b5b50620004ee565b5060208310610133831016604e8410600b8410161715620004bf5782820a905083811115620004b957620004b8620005d9565b5b620004ee565b620004ce84848460016200035d565b92509050818404811115620004e857620004e7620005d9565b5b81810290505b9392505050565b6000620005028262000556565b91506200050f8362000556565b9250817fffffffffffffffffffffffffffffffffffffffffffffffffffffffffffffffff04831182151516156200054b576200054a620005d9565b5b828202905092915050565b6000819050919050565b600060ff82169050919050565b60005b838110156200058d57808201518184015260208101905062000570565b838111156200059d576000848401525b50505050565b60006002820490506001821680620005bc57607f821691505b60208210811415620005d357620005d262000608565b5b50919050565b7f4e487b7100000000000000000000000000000000000000000000000000000000600052601160045260246000fd5b7f4e487b7100000000000000000000000000000000000000000000000000000000600052602260045260246000fd5b7f4e487b7100000000000000000000000000000000000000000000000000000000600052604160045260246000fd5b60008160011c9050919050565b6200067e8162000556565b81146200068a57600080fd5b50565b620006988162000560565b8114620006a457600080fd5b50565b610b3d80620006b76000396000f3fe608060405234801561001057600080fd5b50600436106100885760003560e01c806370a082311161005b57806370a082311461011757806395d89b4114610147578063a9059cbb14610165578063dd62ed3e1461019557610088565b806306fdde031461008d578063095ea7b3146100ab57806318160ddd146100db578063313ce567146100f9575b600080fd5b6100956101c5565b6040516100a29190610872565b60405180910390f35b6100c560048036038101906100c09190610735565b610253565b6040516100d29190610857565b60405180910390f35b6100e36103b4565b6040516100f091906108d4565b60405180910390f35b6101016103ba565b60405161010e91906108ef565b60405180910390f35b610131600480360381019061012c91906106d0565b6103cd565b60405161013e91906108d4565b60405180910390f35b61014f6103e5565b60405161015c9190610872565b60405180910390f35b61017f600480360381019061017a9190610735565b610473565b60405161018c9190610857565b60405180910390f35b6101af60048036038101906101aa91906106f9565b610681565b6040516101bc91906108d4565b60405180910390f35b600080546101d290610a38565b80601f01602080910402602001604051908101604052809291908181526020018280546101fe90610a38565b801561024b5780601f106102205761010080835404028352916020019161024b565b820191906000526020600020905b81548152906001019060200180831161022e57829003601f168201915b505050505081565b60008073ffffffffffffffffffffffffffffffffffffffff168373ffffffffffffffffffffffffffffffffffffffff1614156102c4576040517f08c379a00000000000000000000000000000000000000000000000000000000081526004016102bb90610894565b60405180910390fd5b81600560003373ffffffffffffffffffffffffffffffffffffffff1673ffffffffffffffffffffffffffffffffffffffff16815260200190815260200160002060008573ffffffffffffffffffffffffffffffffffffffff1673ffffffffffffffffffffffffffffffffffffffff168152602001908152602001600020819055508273ffffffffffffffffffffffffffffffffffffffff163373ffffffffffffffffffffffffffffffffffffffff167f8c5be1e5ebec7d5bd14f71427d1e84f3dd0314c0f7b2291e5b200ac8c7c3b925846040516103a291906108d4565b60405180910390a36001905092915050565b60035481565b600260009054906101000a900460ff1681565b60046020528060005260406000206000915090505481565b600180546103f290610a38565b80601f016020809104026020016040519081016040528092919081815260200182805461041e90610a38565b801561046b5780601f106104405761010080835404028352916020019161046b565b820191906000526020600020905b81548152906001019060200180831161044e57829003601f168201915b505050505081565b60008073ffffffffffffffffffffffffffffffffffffffff168373ffffffffffffffffffffffffffffffffffffffff1614156104e4576040517f08c379a00000000000000000000000000000000000000000000000000000000081526004016104db90610894565b60405180910390fd5b81600460003373ffffffffffffffffffffffffffffffffffffffff1673ffffffffffffffffffffffffffffffffffffffff168152602001908152602001600020541015610566576040517f08c379a000000000000000000000000000000000000000000000000000000000815260040161055d906108b4565b60405180910390fd5b81600460003373ffffffffffffffffffffffffffffffffffffffff1673ffffffffffffffffffffffffffffffffffffffff16815260200190815260200160002060008282546105b5919061097c565b9250508190555081600460008573ffffffffffffffffffffffffffffffffffffffff1673ffffffffffffffffffffffffffffffffffffffff168152602001908152602001600020600082825461060b9190610926565b925050819055508273ffffffffffffffffffffffffffffffffffffffff163373ffffffffffffffffffffffffffffffffffffffff167fddf252ad1be2c89b69c2b068fc378daa952ba7f163c4a11628f55a4df523b3ef8460405161066f91906108d4565b60405180910390a36001905092915050565b6005602052816000526040600020602052806000526040600020600091509150505481565b6000813590506106b581610ad9565b92915050565b6000813590506106ca81610af0565b92915050565b6000602082840312156106e257600080fd5b60006106f0848285016106a6565b91505092915050565b6000806040838503121561070c57600080fd5b600061071a858286016106a6565b925050602061072b858286016106a6565b9150509250929050565b6000806040838503121561074857600080fd5b6000610756858286016106a6565b9250506020610767858286016106bb565b9150509250929050565b61077a816109c2565b82525050565b600061078b8261090a565b6107958185610915565b93506107a5818560208601610a05565b6107ae81610ac8565b840191505092915050565b60006107c6600f83610915565b91507f496e76616c6964206164647265737300000000000000000000000000000000006000830152602082019050919050565b6000610806601183610915565b91507f496e737566696369656e742066756e64730000000000000000000000000000006000830152602082019050919050565b610842816109ee565b82525050565b610851816109f8565b82525050565b600060208201905061086c6000830184610771565b92915050565b6000602082019050818103600083015261088c8184610780565b905092915050565b600060208201905081810360008301526108ad816107b9565b9050919050565b600060208201905081810360008301526108cd816107f9565b9050919050565b60006020820190506108e96000830184610839565b92915050565b60006020820190506109046000830184610848565b92915050565b600081519050919050565b600082825260208201905092915050565b6000610931826109ee565b915061093c836109ee565b9250827fffffffffffffffffffffffffffffffffffffffffffffffffffffffffffffffff0382111561097157610970610a6a565b5b828201905092915050565b6000610987826109ee565b9150610992836109ee565b9250828210156109a5576109a4610a6a565b5b828203905092915050565b60006109bb826109ce565b9050919050565b60008115159050919050565b600073ffffffffffffffffffffffffffffffffffffffff82169050919050565b6000819050919050565b600060ff82169050919050565b60005b83811015610a23578082015181840152602081019050610a08565b83811115610a32576000848401525b50505050565b60006002820490506001821680610a5057607f821691505b60208210811415610a6457610a63610a99565b5b50919050565b7f4e487b7100000000000000000000000000000000000000000000000000000000600052601160045260246000fd5b7f4e487b7100000000000000000000000000000000000000000000000000000000600052602260045260246000fd5b6000601f19601f8301169050919050565b610ae2816109b0565b8114610aed57600080fd5b50565b610af9816109ee565b8114610b0457600080fd5b5056fea2646970667358221220da34e39204badb08daf35b9a764e96c9d27be1c319c64284255ea3abcd52f84664736f6c63430008000033",
					"opcodes": "PUSH1 0x80 PUSH1 0x40 MSTORE CALLVALUE DUP1 ISZERO PUSH3 0x11 JUMPI PUSH1 0x0 DUP1 REVERT JUMPDEST POP PUSH1 0x40 MLOAD PUSH3 0x11F4 CODESIZE SUB DUP1 PUSH3 0x11F4 DUP4 CODECOPY DUP2 DUP2 ADD PUSH1 0x40 MSTORE DUP2 ADD SWAP1 PUSH3 0x37 SWAP2 SWAP1 PUSH3 0x258 JUMP JUMPDEST DUP4 PUSH1 0x0 SWAP1 DUP1 MLOAD SWAP1 PUSH1 0x20 ADD SWAP1 PUSH3 0x4F SWAP3 SWAP2 SWAP1 PUSH3 0x108 JUMP JUMPDEST POP DUP3 PUSH1 0x1 SWAP1 DUP1 MLOAD SWAP1 PUSH1 0x20 ADD SWAP1 PUSH3 0x68 SWAP3 SWAP2 SWAP1 PUSH3 0x108 JUMP JUMPDEST POP DUP2 PUSH1 0x2 PUSH1 0x0 PUSH2 0x100 EXP DUP2 SLOAD DUP2 PUSH1 0xFF MUL NOT AND SWAP1 DUP4 PUSH1 0xFF AND MUL OR SWAP1 SSTORE POP PUSH1 0x2 PUSH1 0x0 SWAP1 SLOAD SWAP1 PUSH2 0x100 EXP SWAP1 DIV PUSH1 0xFF AND PUSH1 0xFF AND PUSH1 0xA PUSH3 0xA5 SWAP2 SWAP1 PUSH3 0x3B8 JUMP JUMPDEST DUP2 PUSH3 0xB2 SWAP2 SWAP1 PUSH3 0x4F5 JUMP JUMPDEST PUSH1 0x3 DUP2 SWAP1 SSTORE POP PUSH1 0x3 SLOAD PUSH1 0x4 PUSH1 0x0 CALLER PUSH20 0xFFFFFFFFFFFFFFFFFFFFFFFFFFFFFFFFFFFFFFFF AND PUSH20 0xFFFFFFFFFFFFFFFFFFFFFFFFFFFFFFFFFFFFFFFF AND DUP2 MSTORE PUSH1 0x20 ADD SWAP1 DUP2 MSTORE PUSH1 0x20 ADD PUSH1 0x0 KECCAK256 DUP2 SWAP1 SSTORE POP POP POP POP POP PUSH3 0x6A7 JUMP JUMPDEST DUP3 DUP1 SLOAD PUSH3 0x116 SWAP1 PUSH3 0x5A3 JUMP JUMPDEST SWAP1 PUSH1 0x0 MSTORE PUSH1 0x20 PUSH1 0x0 KECCAK256 SWAP1 PUSH1 0x1F ADD PUSH1 0x20 SWAP1 DIV DUP2 ADD SWAP3 DUP3 PUSH3 0x13A JUMPI PUSH1 0x0 DUP6 SSTORE PUSH3 0x186 JUMP JUMPDEST DUP3 PUSH1 0x1F LT PUSH3 0x155 JUMPI DUP1 MLOAD PUSH1 0xFF NOT AND DUP4 DUP1 ADD OR DUP6 SSTORE PUSH3 0x186 JUMP JUMPDEST DUP3 DUP1 ADD PUSH1 0x1 ADD DUP6 SSTORE DUP3 ISZERO PUSH3 0x186 JUMPI SWAP2 DUP3 ADD JUMPDEST DUP3 DUP2 GT ISZERO PUSH3 0x185 JUMPI DUP3 MLOAD DUP3 SSTORE SWAP2 PUSH1 0x20 ADD SWAP2 SWAP1 PUSH1 0x1 ADD SWAP1 PUSH3 0x168 JUMP JUMPDEST JUMPDEST POP SWAP1 POP PUSH3 0x195 SWAP2 SWAP1 PUSH3 0x199 JUMP JUMPDEST POP SWAP1 JUMP JUMPDEST JUMPDEST DUP1 DUP3 GT ISZERO PUSH3 0x1B4 JUMPI PUSH1 0x0 DUP2 PUSH1 0x0 SWAP1 SSTORE POP PUSH1 0x1 ADD PUSH3 0x19A JUMP JUMPDEST POP SWAP1 JUMP JUMPDEST PUSH1 0x0 PUSH3 0x1CF PUSH3 0x1C9 DUP5 PUSH3 0x32A JUMP JUMPDEST PUSH3 0x2F6 JUMP JUMPDEST SWAP1 POP DUP3 DUP2 MSTORE PUSH1 0x20 DUP2 ADD DUP5 DUP5 DUP5 ADD GT ISZERO PUSH3 0x1E8 JUMPI PUSH1 0x0 DUP1 REVERT JUMPDEST PUSH3 0x1F5 DUP5 DUP3 DUP6 PUSH3 0x56D JUMP JUMPDEST POP SWAP4 SWAP3 POP POP POP JUMP JUMPDEST PUSH1 0x0 DUP3 PUSH1 0x1F DUP4 ADD SLT PUSH3 0x20F JUMPI PUSH1 0x0 DUP1 REVERT JUMPDEST DUP2 MLOAD PUSH3 0x221 DUP5 DUP3 PUSH1 0x20 DUP7 ADD PUSH3 0x1B8 JUMP JUMPDEST SWAP2 POP POP SWAP3 SWAP2 POP POP JUMP JUMPDEST PUSH1 0x0 DUP2 MLOAD SWAP1 POP PUSH3 0x23B DUP2 PUSH3 0x673 JUMP JUMPDEST SWAP3 SWAP2 POP POP JUMP JUMPDEST PUSH1 0x0 DUP2 MLOAD SWAP1 POP PUSH3 0x252 DUP2 PUSH3 0x68D JUMP JUMPDEST SWAP3 SWAP2 POP POP JUMP JUMPDEST PUSH1 0x0 DUP1 PUSH1 0x0 DUP1 PUSH1 0x80 DUP6 DUP8 SUB SLT ISZERO PUSH3 0x26F JUMPI PUSH1 0x0 DUP1 REVERT JUMPDEST PUSH1 0x0 DUP6 ADD MLOAD PUSH8 0xFFFFFFFFFFFFFFFF DUP2 GT ISZERO PUSH3 0x28A JUMPI PUSH1 0x0 DUP1 REVERT JUMPDEST PUSH3 0x298 DUP8 DUP3 DUP9 ADD PUSH3 0x1FD JUMP JUMPDEST SWAP5 POP POP PUSH1 0x20 DUP6 ADD MLOAD PUSH8 0xFFFFFFFFFFFFFFFF DUP2 GT ISZERO PUSH3 0x2B6 JUMPI PUSH1 0x0 DUP1 REVERT JUMPDEST PUSH3 0x2C4 DUP8 DUP3 DUP9 ADD PUSH3 0x1FD JUMP JUMPDEST SWAP4 POP POP PUSH1 0x40 PUSH3 0x2D7 DUP8 DUP3 DUP9 ADD PUSH3 0x241 JUMP JUMPDEST SWAP3 POP POP PUSH1 0x60 PUSH3 0x2EA DUP8 DUP3 DUP9 ADD PUSH3 0x22A JUMP JUMPDEST SWAP2 POP POP SWAP3 SWAP6 SWAP2 SWAP5 POP SWAP3 POP JUMP JUMPDEST PUSH1 0x0 PUSH1 0x40 MLOAD SWAP1 POP DUP2 DUP2 ADD DUP2 DUP2 LT PUSH8 0xFFFFFFFFFFFFFFFF DUP3 GT OR ISZERO PUSH3 0x320 JUMPI PUSH3 0x31F PUSH3 0x637 JUMP JUMPDEST JUMPDEST DUP1 PUSH1 0x40 MSTORE POP SWAP2 SWAP1 POP JUMP JUMPDEST PUSH1 0x0 PUSH8 0xFFFFFFFFFFFFFFFF DUP3 GT ISZERO PUSH3 0x348 JUMPI PUSH3 0x347 PUSH3 0x637 JUMP JUMPDEST JUMPDEST PUSH1 0x1F NOT PUSH1 0x1F DUP4 ADD AND SWAP1 POP PUSH1 0x20 DUP2 ADD SWAP1 POP SWAP2 SWAP1 POP JUMP JUMPDEST PUSH1 0x0 DUP1 DUP3 SWAP2 POP DUP4 SWAP1 POP JUMPDEST PUSH1 0x1 DUP6 GT ISZERO PUSH3 0x3AF JUMPI DUP1 DUP7 DIV DUP2 GT ISZERO PUSH3 0x387 JUMPI PUSH3 0x386 PUSH3 0x5D9 JUMP JUMPDEST JUMPDEST PUSH1 0x1 DUP6 AND ISZERO PUSH3 0x397 JUMPI DUP1 DUP3 MUL SWAP2 POP JUMPDEST DUP1 DUP2 MUL SWAP1 POP PUSH3 0x3A7 DUP6 PUSH3 0x666 JUMP JUMPDEST SWAP5 POP PUSH3 0x367 JUMP JUMPDEST SWAP5 POP SWAP5 SWAP3 POP POP POP JUMP JUMPDEST PUSH1 0x0 PUSH3 0x3C5 DUP3 PUSH3 0x556 JUMP JUMPDEST SWAP2 POP PUSH3 0x3D2 DUP4 PUSH3 0x556 JUMP JUMPDEST SWAP3 POP PUSH3 0x401 PUSH32 0xFFFFFFFFFFFFFFFFFFFFFFFFFFFFFFFFFFFFFFFFFFFFFFFFFFFFFFFFFFFFFFFF DUP5 DUP5 PUSH3 0x409 JUMP JUMPDEST SWAP1 POP SWAP3 SWAP2 POP POP JUMP JUMPDEST PUSH1 0x0 DUP3 PUSH3 0x41B JUMPI PUSH1 0x1 SWAP1 POP PUSH3 0x4EE JUMP JUMPDEST DUP2 PUSH3 0x42B JUMPI PUSH1 0x0 SWAP1 POP PUSH3 0x4EE JUMP JUMPDEST DUP2 PUSH1 0x1 DUP2 EQ PUSH3 0x444 JUMPI PUSH1 0x2 DUP2 EQ PUSH3 0x44F JUMPI PUSH3 0x485 JUMP JUMPDEST PUSH1 0x1 SWAP2 POP POP PUSH3 0x4EE JUMP JUMPDEST PUSH1 0xFF DUP5 GT ISZERO PUSH3 0x464 JUMPI PUSH3 0x463 PUSH3 0x5D9 JUMP JUMPDEST JUMPDEST DUP4 PUSH1 0x2 EXP SWAP2 POP DUP5 DUP3 GT ISZERO PUSH3 0x47E JUMPI PUSH3 0x47D PUSH3 0x5D9 JUMP JUMPDEST JUMPDEST POP PUSH3 0x4EE JUMP JUMPDEST POP PUSH1 0x20 DUP4 LT PUSH2 0x133 DUP4 LT AND PUSH1 0x4E DUP5 LT PUSH1 0xB DUP5 LT AND OR ISZERO PUSH3 0x4BF JUMPI DUP3 DUP3 EXP SWAP1 POP DUP4 DUP2 GT ISZERO PUSH3 0x4B9 JUMPI PUSH3 0x4B8 PUSH3 0x5D9 JUMP JUMPDEST JUMPDEST PUSH3 0x4EE JUMP JUMPDEST PUSH3 0x4CE DUP5 DUP5 DUP5 PUSH1 0x1 PUSH3 0x35D JUMP JUMPDEST SWAP3 POP SWAP1 POP DUP2 DUP5 DIV DUP2 GT ISZERO PUSH3 0x4E8 JUMPI PUSH3 0x4E7 PUSH3 0x5D9 JUMP JUMPDEST JUMPDEST DUP2 DUP2 MUL SWAP1 POP JUMPDEST SWAP4 SWAP3 POP POP POP JUMP JUMPDEST PUSH1 0x0 PUSH3 0x502 DUP3 PUSH3 0x556 JUMP JUMPDEST SWAP2 POP PUSH3 0x50F DUP4 PUSH3 0x556 JUMP JUMPDEST SWAP3 POP DUP2 PUSH32 0xFFFFFFFFFFFFFFFFFFFFFFFFFFFFFFFFFFFFFFFFFFFFFFFFFFFFFFFFFFFFFFFF DIV DUP4 GT DUP3 ISZERO ISZERO AND ISZERO PUSH3 0x54B JUMPI PUSH3 0x54A PUSH3 0x5D9 JUMP JUMPDEST JUMPDEST DUP3 DUP3 MUL SWAP1 POP SWAP3 SWAP2 POP POP JUMP JUMPDEST PUSH1 0x0 DUP2 SWAP1 POP SWAP2 SWAP1 POP JUMP JUMPDEST PUSH1 0x0 PUSH1 0xFF DUP3 AND SWAP1 POP SWAP2 SWAP1 POP JUMP JUMPDEST PUSH1 0x0 JUMPDEST DUP4 DUP2 LT ISZERO PUSH3 0x58D JUMPI DUP1 DUP3 ADD MLOAD DUP2 DUP5 ADD MSTORE PUSH1 0x20 DUP2 ADD SWAP1 POP PUSH3 0x570 JUMP JUMPDEST DUP4 DUP2 GT ISZERO PUSH3 0x59D JUMPI PUSH1 0x0 DUP5 DUP5 ADD MSTORE JUMPDEST POP POP POP POP JUMP JUMPDEST PUSH1 0x0 PUSH1 0x2 DUP3 DIV SWAP1 POP PUSH1 0x1 DUP3 AND DUP1 PUSH3 0x5BC JUMPI PUSH1 0x7F DUP3 AND SWAP2 POP JUMPDEST PUSH1 0x20 DUP3 LT DUP2 EQ ISZERO PUSH3 0x5D3 JUMPI PUSH3 0x5D2 PUSH3 0x608 JUMP JUMPDEST JUMPDEST POP SWAP2 SWAP1 POP JUMP JUMPDEST PUSH32 0x4E487B7100000000000000000000000000000000000000000000000000000000 PUSH1 0x0 MSTORE PUSH1 0x11 PUSH1 0x4 MSTORE PUSH1 0x24 PUSH1 0x0 REVERT JUMPDEST PUSH32 0x4E487B7100000000000000000000000000000000000000000000000000000000 PUSH1 0x0 MSTORE PUSH1 0x22 PUSH1 0x4 MSTORE PUSH1 0x24 PUSH1 0x0 REVERT JUMPDEST PUSH32 0x4E487B7100000000000000000000000000000000000000000000000000000000 PUSH1 0x0 MSTORE PUSH1 0x41 PUSH1 0x4 MSTORE PUSH1 0x24 PUSH1 0x0 REVERT JUMPDEST PUSH1 0x0 DUP2 PUSH1 0x1 SHR SWAP1 POP SWAP2 SWAP1 POP JUMP JUMPDEST PUSH3 0x67E DUP2 PUSH3 0x556 JUMP JUMPDEST DUP2 EQ PUSH3 0x68A JUMPI PUSH1 0x0 DUP1 REVERT JUMPDEST POP JUMP JUMPDEST PUSH3 0x698 DUP2 PUSH3 0x560 JUMP JUMPDEST DUP2 EQ PUSH3 0x6A4 JUMPI PUSH1 0x0 DUP1 REVERT JUMPDEST POP JUMP JUMPDEST PUSH2 0xB3D DUP1 PUSH3 0x6B7 PUSH1 0x0 CODECOPY PUSH1 0x0 RETURN INVALID PUSH1 0x80 PUSH1 0x40 MSTORE CALLVALUE DUP1 ISZERO PUSH2 0x10 JUMPI PUSH1 0x0 DUP1 REVERT JUMPDEST POP PUSH1 0x4 CALLDATASIZE LT PUSH2 0x88 JUMPI PUSH1 0x0 CALLDATALOAD PUSH1 0xE0 SHR DUP1 PUSH4 0x70A08231 GT PUSH2 0x5B JUMPI DUP1 PUSH4 0x70A08231 EQ PUSH2 0x117 JUMPI DUP1 PUSH4 0x95D89B41 EQ PUSH2 0x147 JUMPI DUP1 PUSH4 0xA9059CBB EQ PUSH2 0x165 JUMPI DUP1 PUSH4 0xDD62ED3E EQ PUSH2 0x195 JUMPI PUSH2 0x88 JUMP JUMPDEST DUP1 PUSH4 0x6FDDE03 EQ PUSH2 0x8D JUMPI DUP1 PUSH4 0x95EA7B3 EQ PUSH2 0xAB JUMPI DUP1 PUSH4 0x18160DDD EQ PUSH2 0xDB JUMPI DUP1 PUSH4 0x313CE567 EQ PUSH2 0xF9 JUMPI JUMPDEST PUSH1 0x0 DUP1 REVERT JUMPDEST PUSH2 0x95 PUSH2 0x1C5 JUMP JUMPDEST PUSH1 0x40 MLOAD PUSH2 0xA2 SWAP2 SWAP1 PUSH2 0x872 JUMP JUMPDEST PUSH1 0x40 MLOAD DUP1 SWAP2 SUB SWAP1 RETURN JUMPDEST PUSH2 0xC5 PUSH1 0x4 DUP1 CALLDATASIZE SUB DUP2 ADD SWAP1 PUSH2 0xC0 SWAP2 SWAP1 PUSH2 0x735 JUMP JUMPDEST PUSH2 0x253 JUMP JUMPDEST PUSH1 0x40 MLOAD PUSH2 0xD2 SWAP2 SWAP1 PUSH2 0x857 JUMP JUMPDEST PUSH1 0x40 MLOAD DUP1 SWAP2 SUB SWAP1 RETURN JUMPDEST PUSH2 0xE3 PUSH2 0x3B4 JUMP JUMPDEST PUSH1 0x40 MLOAD PUSH2 0xF0 SWAP2 SWAP1 PUSH2 0x8D4 JUMP JUMPDEST PUSH1 0x40 MLOAD DUP1 SWAP2 SUB SWAP1 RETURN JUMPDEST PUSH2 0x101 PUSH2 0x3BA JUMP JUMPDEST PUSH1 0x40 MLOAD PUSH2 0x10E SWAP2 SWAP1 PUSH2 0x8EF JUMP JUMPDEST PUSH1 0x40 MLOAD DUP1 SWAP2 SUB SWAP1 RETURN JUMPDEST PUSH2 0x131 PUSH1 0x4 DUP1 CALLDATASIZE SUB DUP2 ADD SWAP1 PUSH2 0x12C SWAP2 SWAP1 PUSH2 0x6D0 JUMP JUMPDEST PUSH2 0x3CD JUMP JUMPDEST PUSH1 0x40 MLOAD PUSH2 0x13E SWAP2 SWAP1 PUSH2 0x8D4 JUMP JUMPDEST PUSH1 0x40 MLOAD DUP1 SWAP2 SUB SWAP1 RETURN JUMPDEST PUSH2 0x14F PUSH2 0x3E5 JUMP JUMPDEST PUSH1 0x40 MLOAD PUSH2 0x15C SWAP2 SWAP1 PUSH2 0x872 JUMP JUMPDEST PUSH1 0x40 MLOAD DUP1 SWAP2 SUB SWAP1 RETURN JUMPDEST PUSH2 0x17F PUSH1 0x4 DUP1 CALLDATASIZE SUB DUP2 ADD SWAP1 PUSH2 0x17A SWAP2 SWAP1 PUSH2 0x735 JUMP JUMPDEST PUSH2 0x473 JUMP JUMPDEST PUSH1 0x40 MLOAD PUSH2 0x18C SWAP2 SWAP1 PUSH2 0x857 JUMP JUMPDEST PUSH1 0x40 MLOAD DUP1 SWAP2 SUB SWAP1 RETURN JUMPDEST PUSH2 0x1AF PUSH1 0x4 DUP1 CALLDATASIZE SUB DUP2 ADD SWAP1 PUSH2 0x1AA SWAP2 SWAP1 PUSH2 0x6F9 JUMP JUMPDEST PUSH2 0x681 JUMP JUMPDEST PUSH1 0x40 MLOAD PUSH2 0x1BC SWAP2 SWAP1 PUSH2 0x8D4 JUMP JUMPDEST PUSH1 0x40 MLOAD DUP1 SWAP2 SUB SWAP1 RETURN JUMPDEST PUSH1 0x0 DUP1 SLOAD PUSH2 0x1D2 SWAP1 PUSH2 0xA38 JUMP JUMPDEST DUP1 PUSH1 0x1F ADD PUSH1 0x20 DUP1 SWAP2 DIV MUL PUSH1 0x20 ADD PUSH1 0x40 MLOAD SWAP1 DUP2 ADD PUSH1 0x40 MSTORE DUP1 SWAP3 SWAP2 SWAP1 DUP2 DUP2 MSTORE PUSH1 0x20 ADD DUP3 DUP1 SLOAD PUSH2 0x1FE SWAP1 PUSH2 0xA38 JUMP JUMPDEST DUP1 ISZERO PUSH2 0x24B JUMPI DUP1 PUSH1 0x1F LT PUSH2 0x220 JUMPI PUSH2 0x100 DUP1 DUP4 SLOAD DIV MUL DUP4 MSTORE SWAP2 PUSH1 0x20 ADD SWAP2 PUSH2 0x24B JUMP JUMPDEST DUP3 ADD SWAP2 SWAP1 PUSH1 0x0 MSTORE PUSH1 0x20 PUSH1 0x0 KECCAK256 SWAP1 JUMPDEST DUP2 SLOAD DUP2 MSTORE SWAP1 PUSH1 0x1 ADD SWAP1 PUSH1 0x20 ADD DUP1 DUP4 GT PUSH2 0x22E JUMPI DUP3 SWAP1 SUB PUSH1 0x1F AND DUP3 ADD SWAP2 JUMPDEST POP POP POP POP POP DUP2 JUMP JUMPDEST PUSH1 0x0 DUP1 PUSH20 0xFFFFFFFFFFFFFFFFFFFFFFFFFFFFFFFFFFFFFFFF AND DUP4 PUSH20 0xFFFFFFFFFFFFFFFFFFFFFFFFFFFFFFFFFFFFFFFF AND EQ ISZERO PUSH2 0x2C4 JUMPI PUSH1 0x40 MLOAD PUSH32 0x8C379A000000000000000000000000000000000000000000000000000000000 DUP2 MSTORE PUSH1 0x4 ADD PUSH2 0x2BB SWAP1 PUSH2 0x894 JUMP JUMPDEST PUSH1 0x40 MLOAD DUP1 SWAP2 SUB SWAP1 REVERT JUMPDEST DUP2 PUSH1 0x5 PUSH1 0x0 CALLER PUSH20 0xFFFFFFFFFFFFFFFFFFFFFFFFFFFFFFFFFFFFFFFF AND PUSH20 0xFFFFFFFFFFFFFFFFFFFFFFFFFFFFFFFFFFFFFFFF AND DUP2 MSTORE PUSH1 0x20 ADD SWAP1 DUP2 MSTORE PUSH1 0x20 ADD PUSH1 0x0 KECCAK256 PUSH1 0x0 DUP6 PUSH20 0xFFFFFFFFFFFFFFFFFFFFFFFFFFFFFFFFFFFFFFFF AND PUSH20 0xFFFFFFFFFFFFFFFFFFFFFFFFFFFFFFFFFFFFFFFF AND DUP2 MSTORE PUSH1 0x20 ADD SWAP1 DUP2 MSTORE PUSH1 0x20 ADD PUSH1 0x0 KECCAK256 DUP2 SWAP1 SSTORE POP DUP3 PUSH20 0xFFFFFFFFFFFFFFFFFFFFFFFFFFFFFFFFFFFFFFFF AND CALLER PUSH20 0xFFFFFFFFFFFFFFFFFFFFFFFFFFFFFFFFFFFFFFFF AND PUSH32 0x8C5BE1E5EBEC7D5BD14F71427D1E84F3DD0314C0F7B2291E5B200AC8C7C3B925 DUP5 PUSH1 0x40 MLOAD PUSH2 0x3A2 SWAP2 SWAP1 PUSH2 0x8D4 JUMP JUMPDEST PUSH1 0x40 MLOAD DUP1 SWAP2 SUB SWAP1 LOG3 PUSH1 0x1 SWAP1 POP SWAP3 SWAP2 POP POP JUMP JUMPDEST PUSH1 0x3 SLOAD DUP2 JUMP JUMPDEST PUSH1 0x2 PUSH1 0x0 SWAP1 SLOAD SWAP1 PUSH2 0x100 EXP SWAP1 DIV PUSH1 0xFF AND DUP2 JUMP JUMPDEST PUSH1 0x4 PUSH1 0x20 MSTORE DUP1 PUSH1 0x0 MSTORE PUSH1 0x40 PUSH1 0x0 KECCAK256 PUSH1 0x0 SWAP2 POP SWAP1 POP SLOAD DUP2 JUMP JUMPDEST PUSH1 0x1 DUP1 SLOAD PUSH2 0x3F2 SWAP1 PUSH2 0xA38 JUMP JUMPDEST DUP1 PUSH1 0x1F ADD PUSH1 0x20 DUP1 SWAP2 DIV MUL PUSH1 0x20 ADD PUSH1 0x40 MLOAD SWAP1 DUP2 ADD PUSH1 0x40 MSTORE DUP1 SWAP3 SWAP2 SWAP1 DUP2 DUP2 MSTORE PUSH1 0x20 ADD DUP3 DUP1 SLOAD PUSH2 0x41E SWAP1 PUSH2 0xA38 JUMP JUMPDEST DUP1 ISZERO PUSH2 0x46B JUMPI DUP1 PUSH1 0x1F LT PUSH2 0x440 JUMPI PUSH2 0x100 DUP1 DUP4 SLOAD DIV MUL DUP4 MSTORE SWAP2 PUSH1 0x20 ADD SWAP2 PUSH2 0x46B JUMP JUMPDEST DUP3 ADD SWAP2 SWAP1 PUSH1 0x0 MSTORE PUSH1 0x20 PUSH1 0x0 KECCAK256 SWAP1 JUMPDEST DUP2 SLOAD DUP2 MSTORE SWAP1 PUSH1 0x1 ADD SWAP1 PUSH1 0x20 ADD DUP1 DUP4 GT PUSH2 0x44E JUMPI DUP3 SWAP1 SUB PUSH1 0x1F AND DUP3 ADD SWAP2 JUMPDEST POP POP POP POP POP DUP2 JUMP JUMPDEST PUSH1 0x0 DUP1 PUSH20 0xFFFFFFFFFFFFFFFFFFFFFFFFFFFFFFFFFFFFFFFF AND DUP4 PUSH20 0xFFFFFFFFFFFFFFFFFFFFFFFFFFFFFFFFFFFFFFFF AND EQ ISZERO PUSH2 0x4E4 JUMPI PUSH1 0x40 MLOAD PUSH32 0x8C379A000000000000000000000000000000000000000000000000000000000 DUP2 MSTORE PUSH1 0x4 ADD PUSH2 0x4DB SWAP1 PUSH2 0x894 JUMP JUMPDEST PUSH1 0x40 MLOAD DUP1 SWAP2 SUB SWAP1 REVERT JUMPDEST DUP2 PUSH1 0x4 PUSH1 0x0 CALLER PUSH20 0xFFFFFFFFFFFFFFFFFFFFFFFFFFFFFFFFFFFFFFFF AND PUSH20 0xFFFFFFFFFFFFFFFFFFFFFFFFFFFFFFFFFFFFFFFF AND DUP2 MSTORE PUSH1 0x20 ADD SWAP1 DUP2 MSTORE PUSH1 0x20 ADD PUSH1 0x0 KECCAK256 SLOAD LT ISZERO PUSH2 0x566 JUMPI PUSH1 0x40 MLOAD PUSH32 0x8C379A000000000000000000000000000000000000000000000000000000000 DUP2 MSTORE PUSH1 0x4 ADD PUSH2 0x55D SWAP1 PUSH2 0x8B4 JUMP JUMPDEST PUSH1 0x40 MLOAD DUP1 SWAP2 SUB SWAP1 REVERT JUMPDEST DUP2 PUSH1 0x4 PUSH1 0x0 CALLER PUSH20 0xFFFFFFFFFFFFFFFFFFFFFFFFFFFFFFFFFFFFFFFF AND PUSH20 0xFFFFFFFFFFFFFFFFFFFFFFFFFFFFFFFFFFFFFFFF AND DUP2 MSTORE PUSH1 0x20 ADD SWAP1 DUP2 MSTORE PUSH1 0x20 ADD PUSH1 0x0 KECCAK256 PUSH1 0x0 DUP3 DUP3 SLOAD PUSH2 0x5B5 SWAP2 SWAP1 PUSH2 0x97C JUMP JUMPDEST SWAP3 POP POP DUP2 SWAP1 SSTORE POP DUP2 PUSH1 0x4 PUSH1 0x0 DUP6 PUSH20 0xFFFFFFFFFFFFFFFFFFFFFFFFFFFFFFFFFFFFFFFF AND PUSH20 0xFFFFFFFFFFFFFFFFFFFFFFFFFFFFFFFFFFFFFFFF AND DUP2 MSTORE PUSH1 0x20 ADD SWAP1 DUP2 MSTORE PUSH1 0x20 ADD PUSH1 0x0 KECCAK256 PUSH1 0x0 DUP3 DUP3 SLOAD PUSH2 0x60B SWAP2 SWAP1 PUSH2 0x926 JUMP JUMPDEST SWAP3 POP POP DUP2 SWAP1 SSTORE POP DUP3 PUSH20 0xFFFFFFFFFFFFFFFFFFFFFFFFFFFFFFFFFFFFFFFF AND CALLER PUSH20 0xFFFFFFFFFFFFFFFFFFFFFFFFFFFFFFFFFFFFFFFF AND PUSH32 0xDDF252AD1BE2C89B69C2B068FC378DAA952BA7F163C4A11628F55A4DF523B3EF DUP5 PUSH1 0x40 MLOAD PUSH2 0x66F SWAP2 SWAP1 PUSH2 0x8D4 JUMP JUMPDEST PUSH1 0x40 MLOAD DUP1 SWAP2 SUB SWAP1 LOG3 PUSH1 0x1 SWAP1 POP SWAP3 SWAP2 POP POP JUMP JUMPDEST PUSH1 0x5 PUSH1 0x20 MSTORE DUP2 PUSH1 0x0 MSTORE PUSH1 0x40 PUSH1 0x0 KECCAK256 PUSH1 0x20 MSTORE DUP1 PUSH1 0x0 MSTORE PUSH1 0x40 PUSH1 0x0 KECCAK256 PUSH1 0x0 SWAP2 POP SWAP2 POP POP SLOAD DUP2 JUMP JUMPDEST PUSH1 0x0 DUP2 CALLDATALOAD SWAP1 POP PUSH2 0x6B5 DUP2 PUSH2 0xAD9 JUMP JUMPDEST SWAP3 SWAP2 POP POP JUMP JUMPDEST PUSH1 0x0 DUP2 CALLDATALOAD SWAP1 POP PUSH2 0x6CA DUP2 PUSH2 0xAF0 JUMP JUMPDEST SWAP3 SWAP2 POP POP JUMP JUMPDEST PUSH1 0x0 PUSH1 0x20 DUP3 DUP5 SUB SLT ISZERO PUSH2 0x6E2 JUMPI PUSH1 0x0 DUP1 REVERT JUMPDEST PUSH1 0x0 PUSH2 0x6F0 DUP5 DUP3 DUP6 ADD PUSH2 0x6A6 JUMP JUMPDEST SWAP2 POP POP SWAP3 SWAP2 POP POP JUMP JUMPDEST PUSH1 0x0 DUP1 PUSH1 0x40 DUP4 DUP6 SUB SLT ISZERO PUSH2 0x70C JUMPI PUSH1 0x0 DUP1 REVERT JUMPDEST PUSH1 0x0 PUSH2 0x71A DUP6 DUP3 DUP7 ADD PUSH2 0x6A6 JUMP JUMPDEST SWAP3 POP POP PUSH1 0x20 PUSH2 0x72B DUP6 DUP3 DUP7 ADD PUSH2 0x6A6 JUMP JUMPDEST SWAP2 POP POP SWAP3 POP SWAP3 SWAP1 POP JUMP JUMPDEST PUSH1 0x0 DUP1 PUSH1 0x40 DUP4 DUP6 SUB SLT ISZERO PUSH2 0x748 JUMPI PUSH1 0x0 DUP1 REVERT JUMPDEST PUSH1 0x0 PUSH2 0x756 DUP6 DUP3 DUP7 ADD PUSH2 0x6A6 JUMP JUMPDEST SWAP3 POP POP PUSH1 0x20 PUSH2 0x767 DUP6 DUP3 DUP7 ADD PUSH2 0x6BB JUMP JUMPDEST SWAP2 POP POP SWAP3 POP SWAP3 SWAP1 POP JUMP JUMPDEST PUSH2 0x77A DUP2 PUSH2 0x9C2 JUMP JUMPDEST DUP3 MSTORE POP POP JUMP JUMPDEST PUSH1 0x0 PUSH2 0x78B DUP3 PUSH2 0x90A JUMP JUMPDEST PUSH2 0x795 DUP2 DUP6 PUSH2 0x915 JUMP JUMPDEST SWAP4 POP PUSH2 0x7A5 DUP2 DUP6 PUSH1 0x20 DUP7 ADD PUSH2 0xA05 JUMP JUMPDEST PUSH2 0x7AE DUP2 PUSH2 0xAC8 JUMP JUMPDEST DUP5 ADD SWAP2 POP POP SWAP3 SWAP2 POP POP JUMP JUMPDEST PUSH1 0x0 PUSH2 0x7C6 PUSH1 0xF DUP4 PUSH2 0x915 JUMP JUMPDEST SWAP2 POP PUSH32 0x496E76616C696420616464726573730000000000000000000000000000000000 PUSH1 0x0 DUP4 ADD MSTORE PUSH1 0x20 DUP3 ADD SWAP1 POP SWAP2 SWAP1 POP JUMP JUMPDEST PUSH1 0x0 PUSH2 0x806 PUSH1 0x11 DUP4 PUSH2 0x915 JUMP JUMPDEST SWAP2 POP PUSH32 0x496E737566696369656E742066756E6473000000000000000000000000000000 PUSH1 0x0 DUP4 ADD MSTORE PUSH1 0x20 DUP3 ADD SWAP1 POP SWAP2 SWAP1 POP JUMP JUMPDEST PUSH2 0x842 DUP2 PUSH2 0x9EE JUMP JUMPDEST DUP3 MSTORE POP POP JUMP JUMPDEST PUSH2 0x851 DUP2 PUSH2 0x9F8 JUMP JUMPDEST DUP3 MSTORE POP POP JUMP JUMPDEST PUSH1 0x0 PUSH1 0x20 DUP3 ADD SWAP1 POP PUSH2 0x86C PUSH1 0x0 DUP4 ADD DUP5 PUSH2 0x771 JUMP JUMPDEST SWAP3 SWAP2 POP POP JUMP JUMPDEST PUSH1 0x0 PUSH1 0x20 DUP3 ADD SWAP1 POP DUP2 DUP2 SUB PUSH1 0x0 DUP4 ADD MSTORE PUSH2 0x88C DUP2 DUP5 PUSH2 0x780 JUMP JUMPDEST SWAP1 POP SWAP3 SWAP2 POP POP JUMP JUMPDEST PUSH1 0x0 PUSH1 0x20 DUP3 ADD SWAP1 POP DUP2 DUP2 SUB PUSH1 0x0 DUP4 ADD MSTORE PUSH2 0x8AD DUP2 PUSH2 0x7B9 JUMP JUMPDEST SWAP1 POP SWAP2 SWAP1 POP JUMP JUMPDEST PUSH1 0x0 PUSH1 0x20 DUP3 ADD SWAP1 POP DUP2 DUP2 SUB PUSH1 0x0 DUP4 ADD MSTORE PUSH2 0x8CD DUP2 PUSH2 0x7F9 JUMP JUMPDEST SWAP1 POP SWAP2 SWAP1 POP JUMP JUMPDEST PUSH1 0x0 PUSH1 0x20 DUP3 ADD SWAP1 POP PUSH2 0x8E9 PUSH1 0x0 DUP4 ADD DUP5 PUSH2 0x839 JUMP JUMPDEST SWAP3 SWAP2 POP POP JUMP JUMPDEST PUSH1 0x0 PUSH1 0x20 DUP3 ADD SWAP1 POP PUSH2 0x904 PUSH1 0x0 DUP4 ADD DUP5 PUSH2 0x848 JUMP JUMPDEST SWAP3 SWAP2 POP POP JUMP JUMPDEST PUSH1 0x0 DUP2 MLOAD SWAP1 POP SWAP2 SWAP1 POP JUMP JUMPDEST PUSH1 0x0 DUP3 DUP3 MSTORE PUSH1 0x20 DUP3 ADD SWAP1 POP SWAP3 SWAP2 POP POP JUMP JUMPDEST PUSH1 0x0 PUSH2 0x931 DUP3 PUSH2 0x9EE JUMP JUMPDEST SWAP2 POP PUSH2 0x93C DUP4 PUSH2 0x9EE JUMP JUMPDEST SWAP3 POP DUP3 PUSH32 0xFFFFFFFFFFFFFFFFFFFFFFFFFFFFFFFFFFFFFFFFFFFFFFFFFFFFFFFFFFFFFFFF SUB DUP3 GT ISZERO PUSH2 0x971 JUMPI PUSH2 0x970 PUSH2 0xA6A JUMP JUMPDEST JUMPDEST DUP3 DUP3 ADD SWAP1 POP SWAP3 SWAP2 POP POP JUMP JUMPDEST PUSH1 0x0 PUSH2 0x987 DUP3 PUSH2 0x9EE JUMP JUMPDEST SWAP2 POP PUSH2 0x992 DUP4 PUSH2 0x9EE JUMP JUMPDEST SWAP3 POP DUP3 DUP3 LT ISZERO PUSH2 0x9A5 JUMPI PUSH2 0x9A4 PUSH2 0xA6A JUMP JUMPDEST JUMPDEST DUP3 DUP3 SUB SWAP1 POP SWAP3 SWAP2 POP POP JUMP JUMPDEST PUSH1 0x0 PUSH2 0x9BB DUP3 PUSH2 0x9CE JUMP JUMPDEST SWAP1 POP SWAP2 SWAP1 POP JUMP JUMPDEST PUSH1 0x0 DUP2 ISZERO ISZERO SWAP1 POP SWAP2 SWAP1 POP JUMP JUMPDEST PUSH1 0x0 PUSH20 0xFFFFFFFFFFFFFFFFFFFFFFFFFFFFFFFFFFFFFFFF DUP3 AND SWAP1 POP SWAP2 SWAP1 POP JUMP JUMPDEST PUSH1 0x0 DUP2 SWAP1 POP SWAP2 SWAP1 POP JUMP JUMPDEST PUSH1 0x0 PUSH1 0xFF DUP3 AND SWAP1 POP SWAP2 SWAP1 POP JUMP JUMPDEST PUSH1 0x0 JUMPDEST DUP4 DUP2 LT ISZERO PUSH2 0xA23 JUMPI DUP1 DUP3 ADD MLOAD DUP2 DUP5 ADD MSTORE PUSH1 0x20 DUP2 ADD SWAP1 POP PUSH2 0xA08 JUMP JUMPDEST DUP4 DUP2 GT ISZERO PUSH2 0xA32 JUMPI PUSH1 0x0 DUP5 DUP5 ADD MSTORE JUMPDEST POP POP POP POP JUMP JUMPDEST PUSH1 0x0 PUSH1 0x2 DUP3 DIV SWAP1 POP PUSH1 0x1 DUP3 AND DUP1 PUSH2 0xA50 JUMPI PUSH1 0x7F DUP3 AND SWAP2 POP JUMPDEST PUSH1 0x20 DUP3 LT DUP2 EQ ISZERO PUSH2 0xA64 JUMPI PUSH2 0xA63 PUSH2 0xA99 JUMP JUMPDEST JUMPDEST POP SWAP2 SWAP1 POP JUMP JUMPDEST PUSH32 0x4E487B7100000000000000000000000000000000000000000000000000000000 PUSH1 0x0 MSTORE PUSH1 0x11 PUSH1 0x4 MSTORE PUSH1 0x24 PUSH1 0x0 REVERT JUMPDEST PUSH32 0x4E487B7100000000000000000000000000000000000000000000000000000000 PUSH1 0x0 MSTORE PUSH1 0x22 PUSH1 0x4 MSTORE PUSH1 0x24 PUSH1 0x0 REVERT JUMPDEST PUSH1 0x0 PUSH1 0x1F NOT PUSH1 0x1F DUP4 ADD AND SWAP1 POP SWAP2 SWAP1 POP JUMP JUMPDEST PUSH2 0xAE2 DUP2 PUSH2 0x9B0 JUMP JUMPDEST DUP2 EQ PUSH2 0xAED JUMPI PUSH1 0x0 DUP1 REVERT JUMPDEST POP JUMP JUMPDEST PUSH2 0xAF9 DUP2 PUSH2 0x9EE JUMP JUMPDEST DUP2 EQ PUSH2 0xB04 JUMPI PUSH1 0x0 DUP1 REVERT JUMPDEST POP JUMP INVALID LOG2 PUSH5 0x6970667358 0x22 SLT KECCAK256 0xDA CALLVALUE 0xE3 SWAP3 DIV 0xBA 0xDB ADDMOD 0xDA RETURN JUMPDEST SWAP11 PUSH23 0x4E96C9D27BE1C319C64284255EA3ABCD52F84664736F6C PUSH4 0x43000800 STOP CALLER "
				},
				"gasEstimates": {
					"creation": {
						"codeDepositCost": "575400",
						"executionCost": "infinite",
						"totalCost": "infinite"
					},
					"external": {
						"allowance(address,address)": "infinite",
						"approve(address,uint256)": "infinite",
						"balanceOf(address)": "1514",
						"decimals()": "1238",
						"name()": "infinite",
						"symbol()": "infinite",
						"totalSupply()": "1174",
						"transfer(address,uint256)": "infinite"
					}
				},
				"methodIdentifiers": {
					"allowance(address,address)": "dd62ed3e",
					"approve(address,uint256)": "095ea7b3",
					"balanceOf(address)": "70a08231",
					"decimals()": "313ce567",
					"name()": "06fdde03",
					"symbol()": "95d89b41",
					"totalSupply()": "18160ddd",
					"transfer(address,uint256)": "a9059cbb"
				}
			},
			"storageLayout": {
				"storage": [
					{
						"astId": 3,
						"contract": "ERC-20/MyToken.sol:MyToken",
						"label": "name",
						"offset": 0,
						"slot": "0",
						"type": "t_string_storage"
					},
					{
						"astId": 5,
						"contract": "ERC-20/MyToken.sol:MyToken",
						"label": "symbol",
						"offset": 0,
						"slot": "1",
						"type": "t_string_storage"
					},
					{
						"astId": 7,
						"contract": "ERC-20/MyToken.sol:MyToken",
						"label": "decimals",
						"offset": 0,
						"slot": "2",
						"type": "t_uint8"
					},
					{
						"astId": 9,
						"contract": "ERC-20/MyToken.sol:MyToken",
						"label": "totalSupply",
						"offset": 0,
						"slot": "3",
						"type": "t_uint256"
					},
					{
						"astId": 13,
						"contract": "ERC-20/MyToken.sol:MyToken",
						"label": "balanceOf",
						"offset": 0,
						"slot": "4",
						"type": "t_mapping(t_address,t_uint256)"
					},
					{
						"astId": 19,
						"contract": "ERC-20/MyToken.sol:MyToken",
						"label": "allowance",
						"offset": 0,
						"slot": "5",
						"type": "t_mapping(t_address,t_mapping(t_address,t_uint256))"
					}
				],
				"types": {
					"t_address": {
						"encoding": "inplace",
						"label": "address",
						"numberOfBytes": "20"
					},
					"t_mapping(t_address,t_mapping(t_address,t_uint256))": {
						"encoding": "mapping",
						"key": "t_address",
						"label": "mapping(address => mapping(address => uint256))",
						"numberOfBytes": "32",
						"value": "t_mapping(t_address,t_uint256)"
					},
					"t_mapping(t_address,t_uint256)": {
						"encoding": "mapping",
						"key": "t_address",
						"label": "mapping(address => uint256)",
						"numberOfBytes": "32",
						"value": "t_uint256"
					},
					"t_string_storage": {
						"encoding": "bytes",
						"label": "string",
						"numberOfBytes": "32"
					},
					"t_uint256": {
						"encoding": "inplace",
						"label": "uint256",
						"numberOfBytes": "32"
					},
					"t_uint8": {
						"encoding": "inplace",
						"label": "uint8",
						"numberOfBytes": "1"
					}
				}
			},
			"userdoc": {
				"kind": "user",
				"methods": {},
				"version": 1
			}
		}
	}
}